{
  "_format": "hh-sol-artifact-1",
  "contractName": "BattleShip",
  "sourceName": "contracts/Battleship.sol",
  "abi": [
    {
      "inputs": [
        {
          "internalType": "address",
          "name": "_guest",
          "type": "address"
        }
      ],
      "stateMutability": "nonpayable",
      "type": "constructor"
    },
    {
      "anonymous": false,
      "inputs": [
        {
          "indexed": true,
          "internalType": "address",
          "name": "attacker",
          "type": "address"
        },
        {
          "indexed": false,
          "internalType": "uint8",
          "name": "x",
          "type": "uint8"
        },
        {
          "indexed": false,
          "internalType": "uint8",
          "name": "y",
          "type": "uint8"
        },
        {
          "indexed": false,
          "internalType": "enum BattleShip.coordinateStatus",
          "name": "result",
          "type": "uint8"
        }
      ],
      "name": "Attack",
      "type": "event"
    },
    {
      "anonymous": false,
      "inputs": [
        {
          "indexed": false,
          "internalType": "address",
          "name": "winner",
          "type": "address"
        }
      ],
      "name": "GameEnded",
      "type": "event"
    },
    {
      "anonymous": false,
      "inputs": [
        {
          "indexed": false,
          "internalType": "address",
          "name": "host",
          "type": "address"
        },
        {
          "indexed": false,
          "internalType": "address",
          "name": "guest",
          "type": "address"
        }
      ],
      "name": "GameStarted",
      "type": "event"
    },
    {
      "inputs": [
        {
          "internalType": "uint8",
          "name": "_x",
          "type": "uint8"
        },
        {
          "internalType": "uint8",
          "name": "_y",
          "type": "uint8"
        },
        {
          "internalType": "enum BattleShip.coordinateStatus",
          "name": "_status",
          "type": "uint8"
        }
      ],
      "name": "attack",
      "outputs": [],
      "stateMutability": "nonpayable",
      "type": "function"
    },
    {
      "inputs": [],
      "name": "currentPlayer",
      "outputs": [
        {
          "internalType": "address",
          "name": "",
          "type": "address"
        }
      ],
      "stateMutability": "view",
      "type": "function"
    },
    {
      "inputs": [],
      "name": "endGameManually",
      "outputs": [],
      "stateMutability": "nonpayable",
      "type": "function"
    },
    {
      "inputs": [],
      "name": "gameOver",
      "outputs": [
        {
          "internalType": "bool",
          "name": "",
          "type": "bool"
        }
      ],
      "stateMutability": "view",
      "type": "function"
    },
    {
      "inputs": [],
      "name": "gameStarted",
      "outputs": [
        {
          "internalType": "bool",
          "name": "",
          "type": "bool"
        }
      ],
      "stateMutability": "view",
      "type": "function"
    },
    {
      "inputs": [
        {
          "internalType": "address",
          "name": "_player",
          "type": "address"
        }
      ],
      "name": "getAllAttacks",
      "outputs": [
        {
          "components": [
            {
              "internalType": "uint8",
              "name": "x",
              "type": "uint8"
            },
            {
              "internalType": "uint8",
              "name": "y",
              "type": "uint8"
            },
            {
              "internalType": "enum BattleShip.coordinateStatus",
              "name": "status",
              "type": "uint8"
            }
          ],
          "internalType": "struct BattleShip.Coordinate[]",
          "name": "",
          "type": "tuple[]"
        }
      ],
      "stateMutability": "view",
      "type": "function"
    },
    {
      "inputs": [],
      "name": "guest",
      "outputs": [
        {
          "internalType": "address",
          "name": "",
          "type": "address"
        }
      ],
      "stateMutability": "view",
      "type": "function"
    },
    {
      "inputs": [
        {
          "internalType": "address",
          "name": "",
          "type": "address"
        },
        {
          "internalType": "uint256",
          "name": "",
          "type": "uint256"
        }
      ],
      "name": "historyAttacks",
      "outputs": [
        {
          "internalType": "uint8",
          "name": "x",
          "type": "uint8"
        },
        {
          "internalType": "uint8",
          "name": "y",
          "type": "uint8"
        },
        {
          "internalType": "enum BattleShip.coordinateStatus",
          "name": "status",
          "type": "uint8"
        }
      ],
      "stateMutability": "view",
      "type": "function"
    },
    {
      "inputs": [],
      "name": "host",
      "outputs": [
        {
          "internalType": "address",
          "name": "",
          "type": "address"
        }
      ],
      "stateMutability": "view",
      "type": "function"
    },
    {
      "inputs": [],
      "name": "startGame",
      "outputs": [],
      "stateMutability": "nonpayable",
      "type": "function"
    },
    {
      "inputs": [],
      "name": "winner",
      "outputs": [
        {
          "internalType": "address",
          "name": "",
          "type": "address"
        }
      ],
      "stateMutability": "view",
      "type": "function"
    }
  ],
  "bytecode": "0x60806040523480156200001157600080fd5b5060405162001e2538038062001e2583398181016040528101906200003791906200015f565b336000806101000a81548173ffffffffffffffffffffffffffffffffffffffff021916908373ffffffffffffffffffffffffffffffffffffffff16021790555080600160006101000a81548173ffffffffffffffffffffffffffffffffffffffff021916908373ffffffffffffffffffffffffffffffffffffffff1602179055506000600360146101000a81548160ff0219169083151502179055506000600360156101000a81548160ff0219169083151502179055505062000191565b600080fd5b600073ffffffffffffffffffffffffffffffffffffffff82169050919050565b60006200012782620000fa565b9050919050565b62000139816200011a565b81146200014557600080fd5b50565b60008151905062000159816200012e565b92915050565b600060208284031215620001785762000177620000f5565b5b6000620001888482850162000148565b91505092915050565b611c8480620001a16000396000f3fe608060405234801561001057600080fd5b50600436106100a95760003560e01c8063b531ae6e11610071578063b531ae6e1461012e578063bdb337d11461015e578063c9b865711461017c578063d65ab5f2146101ae578063dfbf53ae146101b8578063f437bc59146101d6576100a9565b80634404a438146100ae5780635c532a3d146100cc5780635e123ce4146100d657806388cbb466146100f45780639a04f70414610110575b600080fd5b6100b66101f4565b6040516100c391906113b1565b60405180910390f35b6100d461021a565b005b6100de610554565b6040516100eb91906113e7565b60405180910390f35b61010e60048036038101906101099190611465565b610567565b005b610118610c2c565b60405161012591906113b1565b60405180910390f35b610148600480360381019061014391906114e4565b610c52565b6040516101559190611688565b60405180910390f35b610166610e47565b60405161017391906113e7565b60405180910390f35b610196600480360381019061019191906116e0565b610e5a565b6040516101a59392919061173e565b60405180910390f35b6101b6610ec4565b005b6101c0611183565b6040516101cd91906113b1565b60405180910390f35b6101de6111a9565b6040516101eb91906113b1565b60405180910390f35b600360009054906101000a900473ffffffffffffffffffffffffffffffffffffffff1681565b60008054906101000a900473ffffffffffffffffffffffffffffffffffffffff1673ffffffffffffffffffffffffffffffffffffffff163373ffffffffffffffffffffffffffffffffffffffff1614806102c15750600160009054906101000a900473ffffffffffffffffffffffffffffffffffffffff1673ffffffffffffffffffffffffffffffffffffffff163373ffffffffffffffffffffffffffffffffffffffff16145b610300576040517f08c379a00000000000000000000000000000000000000000000000000000000081526004016102f7906117f8565b60405180910390fd5b600360149054906101000a900460ff1661034f576040517f08c379a000000000000000000000000000000000000000000000000000000000815260040161034690611864565b60405180910390fd5b600360159054906101000a900460ff161561039f576040517f08c379a0000000000000000000000000000000000000000000000000000000008152600401610396906118d0565b60405180910390fd5b60008054906101000a900473ffffffffffffffffffffffffffffffffffffffff1673ffffffffffffffffffffffffffffffffffffffff16600360009054906101000a900473ffffffffffffffffffffffffffffffffffffffff1673ffffffffffffffffffffffffffffffffffffffff160361047c57600160009054906101000a900473ffffffffffffffffffffffffffffffffffffffff16600260006101000a81548173ffffffffffffffffffffffffffffffffffffffff021916908373ffffffffffffffffffffffffffffffffffffffff1602179055506104de565b60008054906101000a900473ffffffffffffffffffffffffffffffffffffffff16600260006101000a81548173ffffffffffffffffffffffffffffffffffffffff021916908373ffffffffffffffffffffffffffffffffffffffff1602179055505b6001600360156101000a81548160ff0219169083151502179055507f51b77d00d3c0b7e376e9ee146711ceb2c08e58a5dbe38055a618e52109f720c1600260009054906101000a900473ffffffffffffffffffffffffffffffffffffffff1660405161054a91906113b1565b60405180910390a1565b600360149054906101000a900460ff1681565b60008054906101000a900473ffffffffffffffffffffffffffffffffffffffff1673ffffffffffffffffffffffffffffffffffffffff163373ffffffffffffffffffffffffffffffffffffffff16148061060e5750600160009054906101000a900473ffffffffffffffffffffffffffffffffffffffff1673ffffffffffffffffffffffffffffffffffffffff163373ffffffffffffffffffffffffffffffffffffffff16145b61064d576040517f08c379a0000000000000000000000000000000000000000000000000000000008152600401610644906117f8565b60405180910390fd5b600360149054906101000a900460ff1661069c576040517f08c379a000000000000000000000000000000000000000000000000000000000815260040161069390611864565b60405180910390fd5b600360159054906101000a900460ff16156106ec576040517f08c379a00000000000000000000000000000000000000000000000000000000081526004016106e3906118d0565b60405180910390fd5b600360009054906101000a900473ffffffffffffffffffffffffffffffffffffffff1673ffffffffffffffffffffffffffffffffffffffff163373ffffffffffffffffffffffffffffffffffffffff161461077c576040517f08c379a00000000000000000000000000000000000000000000000000000000081526004016107739061193c565b60405180910390fd5b828260008260ff16101580156107955750600a8260ff16105b6107d4576040517f08c379a00000000000000000000000000000000000000000000000000000000081526004016107cb906119a8565b60405180910390fd5b60008160ff16101580156107eb5750600a8160ff16105b61082a576040517f08c379a000000000000000000000000000000000000000000000000000000000815260040161082190611a14565b60405180910390fd5b60005b600460003373ffffffffffffffffffffffffffffffffffffffff1673ffffffffffffffffffffffffffffffffffffffff168152602001908152602001600020805490508110156109c0576000600460003373ffffffffffffffffffffffffffffffffffffffff1673ffffffffffffffffffffffffffffffffffffffff16815260200190815260200160002082815481106108ca576108c9611a34565b5b9060005260206000200160000160009054906101000a900460ff1690506000600460003373ffffffffffffffffffffffffffffffffffffffff1673ffffffffffffffffffffffffffffffffffffffff168152602001908152602001600020838154811061093a57610939611a34565b5b9060005260206000200160000160019054906101000a900460ff1690508760ff168260ff1614801561097157508660ff168160ff16145b156109b1576040517f08c379a00000000000000000000000000000000000000000000000000000000081526004016109a890611ad5565b60405180910390fd5b5050808060010191505061082d565b50600460003373ffffffffffffffffffffffffffffffffffffffff1673ffffffffffffffffffffffffffffffffffffffff16815260200190815260200160002060405180606001604052808760ff1681526020018660ff168152602001856002811115610a3057610a2f61154c565b5b8152509080600181540180825580915050600190039060005260206000200160009091909190915060008201518160000160006101000a81548160ff021916908360ff16021790555060208201518160000160016101000a81548160ff021916908360ff16021790555060408201518160000160026101000a81548160ff02191690836002811115610ac557610ac461154c565b5b021790555050503373ffffffffffffffffffffffffffffffffffffffff167fe747f603e7cb5da9aada1641bae96bc4e34cb86e525d6a3ed409f1c52069f4ab868686604051610b169392919061173e565b60405180910390a2610b266111cd565b60008054906101000a900473ffffffffffffffffffffffffffffffffffffffff1673ffffffffffffffffffffffffffffffffffffffff16600360009054906101000a900473ffffffffffffffffffffffffffffffffffffffff1673ffffffffffffffffffffffffffffffffffffffff1614610bc15760008054906101000a900473ffffffffffffffffffffffffffffffffffffffff16610be5565b600160009054906101000a900473ffffffffffffffffffffffffffffffffffffffff165b600360006101000a81548173ffffffffffffffffffffffffffffffffffffffff021916908373ffffffffffffffffffffffffffffffffffffffff1602179055505050505050565b600160009054906101000a900473ffffffffffffffffffffffffffffffffffffffff1681565b606060008054906101000a900473ffffffffffffffffffffffffffffffffffffffff1673ffffffffffffffffffffffffffffffffffffffff163373ffffffffffffffffffffffffffffffffffffffff161480610cfb5750600160009054906101000a900473ffffffffffffffffffffffffffffffffffffffff1673ffffffffffffffffffffffffffffffffffffffff163373ffffffffffffffffffffffffffffffffffffffff16145b610d3a576040517f08c379a0000000000000000000000000000000000000000000000000000000008152600401610d31906117f8565b60405180910390fd5b600460008373ffffffffffffffffffffffffffffffffffffffff1673ffffffffffffffffffffffffffffffffffffffff168152602001908152602001600020805480602002602001604051908101604052809291908181526020016000905b82821015610e3c578382906000526020600020016040518060600160405290816000820160009054906101000a900460ff1660ff1660ff1681526020016000820160019054906101000a900460ff1660ff1660ff1681526020016000820160029054906101000a900460ff166002811115610e1757610e1661154c565b5b6002811115610e2957610e2861154c565b5b8152505081526020019060010190610d99565b505050509050919050565b600360159054906101000a900460ff1681565b60046020528160005260406000208181548110610e7657600080fd5b90600052602060002001600091509150508060000160009054906101000a900460ff16908060000160019054906101000a900460ff16908060000160029054906101000a900460ff16905083565b60008054906101000a900473ffffffffffffffffffffffffffffffffffffffff1673ffffffffffffffffffffffffffffffffffffffff163373ffffffffffffffffffffffffffffffffffffffff161480610f6b5750600160009054906101000a900473ffffffffffffffffffffffffffffffffffffffff1673ffffffffffffffffffffffffffffffffffffffff163373ffffffffffffffffffffffffffffffffffffffff16145b610faa576040517f08c379a0000000000000000000000000000000000000000000000000000000008152600401610fa1906117f8565b60405180910390fd5b600360149054906101000a900460ff1615610ffa576040517f08c379a0000000000000000000000000000000000000000000000000000000008152600401610ff190611b41565b60405180910390fd5b60008054906101000a900473ffffffffffffffffffffffffffffffffffffffff1673ffffffffffffffffffffffffffffffffffffffff163373ffffffffffffffffffffffffffffffffffffffff1614611088576040517f08c379a000000000000000000000000000000000000000000000000000000000815260040161107f90611bad565b60405180910390fd5b6001600360146101000a81548160ff021916908315150217905550600160009054906101000a900473ffffffffffffffffffffffffffffffffffffffff16600360006101000a81548173ffffffffffffffffffffffffffffffffffffffff021916908373ffffffffffffffffffffffffffffffffffffffff1602179055507f55b25d7f9b5bf8ea934ba7079455d2ba00c68ea7e66c13695275f6b75b95e5f860008054906101000a900473ffffffffffffffffffffffffffffffffffffffff16600160009054906101000a900473ffffffffffffffffffffffffffffffffffffffff16604051611179929190611bcd565b60405180910390a1565b600260009054906101000a900473ffffffffffffffffffffffffffffffffffffffff1681565b60008054906101000a900473ffffffffffffffffffffffffffffffffffffffff1681565b6000805b600460003373ffffffffffffffffffffffffffffffffffffffff1673ffffffffffffffffffffffffffffffffffffffff168152602001908152602001600020805490508110156112cd5760028081111561122e5761122d61154c565b5b600460003373ffffffffffffffffffffffffffffffffffffffff1673ffffffffffffffffffffffffffffffffffffffff168152602001908152602001600020828154811061127f5761127e611a34565b5b9060005260206000200160000160029054906101000a900460ff1660028111156112ac576112ab61154c565b5b036112c05781806112bc90611c25565b9250505b80806001019150506111d1565b5060058160ff160361136d576001600360156101000a81548160ff02191690831515021790555033600260006101000a81548173ffffffffffffffffffffffffffffffffffffffff021916908373ffffffffffffffffffffffffffffffffffffffff1602179055507f51b77d00d3c0b7e376e9ee146711ceb2c08e58a5dbe38055a618e52109f720c13360405161136491906113b1565b60405180910390a15b50565b600073ffffffffffffffffffffffffffffffffffffffff82169050919050565b600061139b82611370565b9050919050565b6113ab81611390565b82525050565b60006020820190506113c660008301846113a2565b92915050565b60008115159050919050565b6113e1816113cc565b82525050565b60006020820190506113fc60008301846113d8565b92915050565b600080fd5b600060ff82169050919050565b61141d81611407565b811461142857600080fd5b50565b60008135905061143a81611414565b92915050565b6003811061144d57600080fd5b50565b60008135905061145f81611440565b92915050565b60008060006060848603121561147e5761147d611402565b5b600061148c8682870161142b565b935050602061149d8682870161142b565b92505060406114ae86828701611450565b9150509250925092565b6114c181611390565b81146114cc57600080fd5b50565b6000813590506114de816114b8565b92915050565b6000602082840312156114fa576114f9611402565b5b6000611508848285016114cf565b91505092915050565b600081519050919050565b600082825260208201905092915050565b6000819050602082019050919050565b61154681611407565b82525050565b7f4e487b7100000000000000000000000000000000000000000000000000000000600052602160045260246000fd5b6003811061158c5761158b61154c565b5b50565b600081905061159d8261157b565b919050565b60006115ad8261158f565b9050919050565b6115bd816115a2565b82525050565b6060820160008201516115d9600085018261153d565b5060208201516115ec602085018261153d565b5060408201516115ff60408501826115b4565b50505050565b600061161183836115c3565b60608301905092915050565b6000602082019050919050565b600061163582611511565b61163f818561151c565b935061164a8361152d565b8060005b8381101561167b5781516116628882611605565b975061166d8361161d565b92505060018101905061164e565b5085935050505092915050565b600060208201905081810360008301526116a2818461162a565b905092915050565b6000819050919050565b6116bd816116aa565b81146116c857600080fd5b50565b6000813590506116da816116b4565b92915050565b600080604083850312156116f7576116f6611402565b5b6000611705858286016114cf565b9250506020611716858286016116cb565b9150509250929050565b61172981611407565b82525050565b611738816115a2565b82525050565b60006060820190506117536000830186611720565b6117606020830185611720565b61176d604083018461172f565b949350505050565b600082825260208201905092915050565b7f596f7520617265206e6f74206120706c6179657220696e20746869732067616d60008201527f652e000000000000000000000000000000000000000000000000000000000000602082015250565b60006117e2602283611775565b91506117ed82611786565b604082019050919050565b60006020820190508181036000830152611811816117d5565b9050919050565b7f5468652067616d6520686173206e6f742073746172746564207965742e000000600082015250565b600061184e601d83611775565b915061185982611818565b602082019050919050565b6000602082019050818103600083015261187d81611841565b9050919050565b7f5468652067616d65206973206f7665722e000000000000000000000000000000600082015250565b60006118ba601183611775565b91506118c582611884565b602082019050919050565b600060208201905081810360008301526118e9816118ad565b9050919050565b7f4e6f7420796f7572207475726e2e000000000000000000000000000000000000600082015250565b6000611926600e83611775565b9150611931826118f0565b602082019050919050565b6000602082019050818103600083015261195581611919565b9050919050565b7f496e76616c6964207820636f6f7264696e6174652e0000000000000000000000600082015250565b6000611992601583611775565b915061199d8261195c565b602082019050919050565b600060208201905081810360008301526119c181611985565b9050919050565b7f496e76616c6964207920636f6f7264696e6174652e0000000000000000000000600082015250565b60006119fe601583611775565b9150611a09826119c8565b602082019050919050565b60006020820190508181036000830152611a2d816119f1565b9050919050565b7f4e487b7100000000000000000000000000000000000000000000000000000000600052603260045260246000fd5b7f596f75206861766520616c72656164792061747461636b65642074686973206360008201527f6f6f7264696e6174652e00000000000000000000000000000000000000000000602082015250565b6000611abf602a83611775565b9150611aca82611a63565b604082019050919050565b60006020820190508181036000830152611aee81611ab2565b9050919050565b7f5468652067616d652068617320616c726561647920737461727465642e000000600082015250565b6000611b2b601d83611775565b9150611b3682611af5565b602082019050919050565b60006020820190508181036000830152611b5a81611b1e565b9050919050565b7f4f6e6c7920686f73742063616e207374617274207468652067616d652e000000600082015250565b6000611b97601d83611775565b9150611ba282611b61565b602082019050919050565b60006020820190508181036000830152611bc681611b8a565b9050919050565b6000604082019050611be260008301856113a2565b611bef60208301846113a2565b9392505050565b7f4e487b7100000000000000000000000000000000000000000000000000000000600052601160045260246000fd5b6000611c3082611407565b915060ff8203611c4357611c42611bf6565b5b60018201905091905056fea2646970667358221220427e12e13a17996a7114d48dad9e5e6b241cda29b838fea0006ad7f2ac4381b564736f6c63430008180033",
  "linkReferences": {},
  "deployedLinkReferences": {}
}