{
  "_format": "hh-sol-artifact-1",
  "contractName": "BattleShip",
  "sourceName": "contracts/Battleshipv2.sol",
  "abi": [
    {
      "inputs": [
        {
          "internalType": "address",
          "name": "_guest",
          "type": "address"
        }
      ],
      "stateMutability": "nonpayable",
      "type": "constructor"
    },
    {
      "anonymous": false,
      "inputs": [
        {
          "indexed": true,
          "internalType": "address",
          "name": "attacker",
          "type": "address"
        },
        {
          "indexed": false,
          "internalType": "uint8",
          "name": "x",
          "type": "uint8"
        },
        {
          "indexed": false,
          "internalType": "uint8",
          "name": "y",
          "type": "uint8"
        },
        {
          "indexed": false,
          "internalType": "enum BattleShip.coordinateStatus",
          "name": "result",
          "type": "uint8"
        }
      ],
      "name": "Attack",
      "type": "event"
    },
    {
      "anonymous": false,
      "inputs": [
        {
          "indexed": false,
          "internalType": "address",
          "name": "winner",
          "type": "address"
        }
      ],
      "name": "GameEnded",
      "type": "event"
    },
    {
      "anonymous": false,
      "inputs": [
        {
          "indexed": false,
          "internalType": "address",
          "name": "host",
          "type": "address"
        },
        {
          "indexed": false,
          "internalType": "address",
          "name": "guest",
          "type": "address"
        }
      ],
      "name": "GameStarted",
      "type": "event"
    },
    {
      "inputs": [
        {
          "internalType": "uint8",
          "name": "_x",
          "type": "uint8"
        },
        {
          "internalType": "uint8",
          "name": "_y",
          "type": "uint8"
        }
      ],
      "name": "attack",
      "outputs": [],
      "stateMutability": "nonpayable",
      "type": "function"
    },
    {
      "inputs": [],
      "name": "checkWinner",
      "outputs": [],
      "stateMutability": "nonpayable",
      "type": "function"
    },
    {
      "inputs": [],
      "name": "currentPlayer",
      "outputs": [
        {
          "internalType": "address",
          "name": "",
          "type": "address"
        }
      ],
      "stateMutability": "view",
      "type": "function"
    },
    {
      "inputs": [],
      "name": "gameOver",
      "outputs": [
        {
          "internalType": "bool",
          "name": "",
          "type": "bool"
        }
      ],
      "stateMutability": "view",
      "type": "function"
    },
    {
      "inputs": [],
      "name": "gameStarted",
      "outputs": [
        {
          "internalType": "bool",
          "name": "",
          "type": "bool"
        }
      ],
      "stateMutability": "view",
      "type": "function"
    },
    {
      "inputs": [
        {
          "internalType": "address",
          "name": "_player",
          "type": "address"
        }
      ],
      "name": "getAllAttacks",
      "outputs": [
        {
          "components": [
            {
              "internalType": "uint8",
              "name": "x",
              "type": "uint8"
            },
            {
              "internalType": "uint8",
              "name": "y",
              "type": "uint8"
            },
            {
              "internalType": "enum BattleShip.coordinateStatus",
              "name": "status",
              "type": "uint8"
            }
          ],
          "internalType": "struct BattleShip.Coordinate[]",
          "name": "",
          "type": "tuple[]"
        }
      ],
      "stateMutability": "view",
      "type": "function"
    },
    {
      "inputs": [],
      "name": "guest",
      "outputs": [
        {
          "internalType": "address",
          "name": "",
          "type": "address"
        }
      ],
      "stateMutability": "view",
      "type": "function"
    },
    {
      "inputs": [
        {
          "internalType": "address",
          "name": "",
          "type": "address"
        },
        {
          "internalType": "uint256",
          "name": "",
          "type": "uint256"
        }
      ],
      "name": "historyAttacks",
      "outputs": [
        {
          "internalType": "uint8",
          "name": "x",
          "type": "uint8"
        },
        {
          "internalType": "uint8",
          "name": "y",
          "type": "uint8"
        },
        {
          "internalType": "enum BattleShip.coordinateStatus",
          "name": "status",
          "type": "uint8"
        }
      ],
      "stateMutability": "view",
      "type": "function"
    },
    {
      "inputs": [],
      "name": "host",
      "outputs": [
        {
          "internalType": "address",
          "name": "",
          "type": "address"
        }
      ],
      "stateMutability": "view",
      "type": "function"
    },
    {
      "inputs": [
        {
          "internalType": "address",
          "name": "",
          "type": "address"
        },
        {
          "internalType": "uint256",
          "name": "",
          "type": "uint256"
        }
      ],
      "name": "realGrid",
      "outputs": [
        {
          "internalType": "uint8",
          "name": "x",
          "type": "uint8"
        },
        {
          "internalType": "uint8",
          "name": "y",
          "type": "uint8"
        },
        {
          "internalType": "enum BattleShip.coordinateStatus",
          "name": "status",
          "type": "uint8"
        }
      ],
      "stateMutability": "view",
      "type": "function"
    },
    {
      "inputs": [
        {
          "internalType": "enum BattleShip.coordinateStatus",
          "name": "_status",
          "type": "uint8"
        }
      ],
      "name": "setLastAttackStatus",
      "outputs": [],
      "stateMutability": "nonpayable",
      "type": "function"
    },
    {
      "inputs": [
        {
          "components": [
            {
              "internalType": "uint8",
              "name": "x",
              "type": "uint8"
            },
            {
              "internalType": "uint8",
              "name": "y",
              "type": "uint8"
            },
            {
              "internalType": "enum BattleShip.coordinateStatus",
              "name": "status",
              "type": "uint8"
            }
          ],
          "internalType": "struct BattleShip.Coordinate[]",
          "name": "_grid",
          "type": "tuple[]"
        }
      ],
      "name": "setRealGrid",
      "outputs": [],
      "stateMutability": "nonpayable",
      "type": "function"
    },
    {
      "inputs": [],
      "name": "startGame",
      "outputs": [],
      "stateMutability": "nonpayable",
      "type": "function"
    },
    {
      "inputs": [],
      "name": "surrender",
      "outputs": [],
      "stateMutability": "nonpayable",
      "type": "function"
    },
    {
      "inputs": [],
      "name": "winner",
      "outputs": [
        {
          "internalType": "address",
          "name": "",
          "type": "address"
        }
      ],
      "stateMutability": "view",
      "type": "function"
    }
  ],
  "bytecode": "0x60806040523480156200001157600080fd5b5060405162004df838038062004df883398181016040528101906200003791906200019b565b600073ffffffffffffffffffffffffffffffffffffffff168173ffffffffffffffffffffffffffffffffffffffff1603620000a9576040517f08c379a0000000000000000000000000000000000000000000000000000000008152600401620000a0906200022e565b60405180910390fd5b336000806101000a81548173ffffffffffffffffffffffffffffffffffffffff021916908373ffffffffffffffffffffffffffffffffffffffff16021790555080600160006101000a81548173ffffffffffffffffffffffffffffffffffffffff021916908373ffffffffffffffffffffffffffffffffffffffff1602179055505062000250565b600080fd5b600073ffffffffffffffffffffffffffffffffffffffff82169050919050565b6000620001638262000136565b9050919050565b620001758162000156565b81146200018157600080fd5b50565b60008151905062000195816200016a565b92915050565b600060208284031215620001b457620001b362000131565b5b6000620001c48482850162000184565b91505092915050565b600082825260208201905092915050565b7f496e76616c696420616464726573730000000000000000000000000000000000600082015250565b600062000216600f83620001cd565b91506200022382620001de565b602082019050919050565b60006020820190508181036000830152620002498162000207565b9050919050565b614b9880620002606000396000f3fe608060405234801561001057600080fd5b50600436106100f55760003560e01c8063b531ae6e11610097578063d65ab5f211610066578063d65ab5f21461023c578063dfbf53ae14610246578063f09a77ab14610264578063f437bc5914610296576100f5565b8063b531ae6e146101b2578063b71c47a2146101e2578063bdb337d1146101ec578063c9b865711461020a576100f5565b806376679c1b116100d357806376679c1b14610152578063808984ba1461016e5780639a04f7041461018a578063ad38867e146101a8576100f5565b80632aab989a146100fa5780634404a438146101165780635e123ce414610134575b600080fd5b610114600480360381019061010f9190613f10565b6102b4565b005b61011e61058d565b60405161012b9190613f9a565b60405180910390f35b61013c6105b3565b6040516101499190613fd0565b60405180910390f35b61016c60048036038101906101679190613feb565b6105c6565b005b61018860048036038101906101839190614018565b61150b565b005b610192611ddf565b60405161019f9190613f9a565b60405180910390f35b6101b0611e05565b005b6101cc60048036038101906101c79190614084565b6132d2565b6040516101d99190614228565b60405180910390f35b6101ea6134c7565b005b6101f46137c1565b6040516102019190613fd0565b60405180910390f35b610224600480360381019061021f9190614280565b6137d4565b604051610233939291906142de565b60405180910390f35b61024461383e565b005b61024e613afd565b60405161025b9190613f9a565b60405180910390f35b61027e60048036038101906102799190614280565b613b23565b60405161028d939291906142de565b60405180910390f35b61029e613b8d565b6040516102ab9190613f9a565b60405180910390f35b60008054906101000a900473ffffffffffffffffffffffffffffffffffffffff1673ffffffffffffffffffffffffffffffffffffffff163373ffffffffffffffffffffffffffffffffffffffff16148061035b5750600160009054906101000a900473ffffffffffffffffffffffffffffffffffffffff1673ffffffffffffffffffffffffffffffffffffffff163373ffffffffffffffffffffffffffffffffffffffff16145b61039a576040517f08c379a000000000000000000000000000000000000000000000000000000000815260040161039190614398565b60405180910390fd5b600360149054906101000a900460ff166103e9576040517f08c379a00000000000000000000000000000000000000000000000000000000081526004016103e090614404565b60405180910390fd5b600360159054906101000a900460ff16610438576040517f08c379a000000000000000000000000000000000000000000000000000000000815260040161042f90614470565b60405180910390fd5b60118151101561047d576040517f08c379a0000000000000000000000000000000000000000000000000000000008152600401610474906144dc565b60405180910390fd5b60005b815181101561058957600560003373ffffffffffffffffffffffffffffffffffffffff1673ffffffffffffffffffffffffffffffffffffffff1681526020019081526020016000208282815181106104db576104da6144fc565b5b60200260200101519080600181540180825580915050600190039060005260206000200160009091909190915060008201518160000160006101000a81548160ff021916908360ff16021790555060208201518160000160016101000a81548160ff021916908360ff16021790555060408201518160000160026101000a81548160ff02191690836003811115610575576105746140ec565b5b021790555050508080600101915050610480565b5050565b600360009054906101000a900473ffffffffffffffffffffffffffffffffffffffff1681565b600360149054906101000a900460ff1681565b60008054906101000a900473ffffffffffffffffffffffffffffffffffffffff1673ffffffffffffffffffffffffffffffffffffffff163373ffffffffffffffffffffffffffffffffffffffff16148061066d5750600160009054906101000a900473ffffffffffffffffffffffffffffffffffffffff1673ffffffffffffffffffffffffffffffffffffffff163373ffffffffffffffffffffffffffffffffffffffff16145b6106ac576040517f08c379a00000000000000000000000000000000000000000000000000000000081526004016106a390614398565b60405180910390fd5b600360149054906101000a900460ff166106fb576040517f08c379a00000000000000000000000000000000000000000000000000000000081526004016106f290614404565b60405180910390fd5b600360159054906101000a900460ff161561074b576040517f08c379a000000000000000000000000000000000000000000000000000000000815260040161074290614577565b60405180910390fd5b600360009054906101000a900473ffffffffffffffffffffffffffffffffffffffff1673ffffffffffffffffffffffffffffffffffffffff163373ffffffffffffffffffffffffffffffffffffffff16146107db576040517f08c379a00000000000000000000000000000000000000000000000000000000081526004016107d2906145e3565b60405180910390fd5b6000600460008060009054906101000a900473ffffffffffffffffffffffffffffffffffffffff1673ffffffffffffffffffffffffffffffffffffffff16600360009054906101000a900473ffffffffffffffffffffffffffffffffffffffff1673ffffffffffffffffffffffffffffffffffffffff161461087d5760008054906101000a900473ffffffffffffffffffffffffffffffffffffffff166108a1565b600160009054906101000a900473ffffffffffffffffffffffffffffffffffffffff165b73ffffffffffffffffffffffffffffffffffffffff1673ffffffffffffffffffffffffffffffffffffffff168152602001908152602001600020805490501480610b465750600060038111156108fa576108f96140ec565b5b600460008060009054906101000a900473ffffffffffffffffffffffffffffffffffffffff1673ffffffffffffffffffffffffffffffffffffffff16600360009054906101000a900473ffffffffffffffffffffffffffffffffffffffff1673ffffffffffffffffffffffffffffffffffffffff161461099a5760008054906101000a900473ffffffffffffffffffffffffffffffffffffffff166109be565b600160009054906101000a900473ffffffffffffffffffffffffffffffffffffffff165b73ffffffffffffffffffffffffffffffffffffffff1673ffffffffffffffffffffffffffffffffffffffff1681526020019081526020016000206001600460008060009054906101000a900473ffffffffffffffffffffffffffffffffffffffff1673ffffffffffffffffffffffffffffffffffffffff16600360009054906101000a900473ffffffffffffffffffffffffffffffffffffffff1673ffffffffffffffffffffffffffffffffffffffff1614610a9a5760008054906101000a900473ffffffffffffffffffffffffffffffffffffffff16610abe565b600160009054906101000a900473ffffffffffffffffffffffffffffffffffffffff165b73ffffffffffffffffffffffffffffffffffffffff1673ffffffffffffffffffffffffffffffffffffffff16815260200190815260200160002080549050610b069190614632565b81548110610b1757610b166144fc565b5b9060005260206000200160000160029054906101000a900460ff166003811115610b4457610b436140ec565b5b145b610b85576040517f08c379a0000000000000000000000000000000000000000000000000000000008152600401610b7c906146d8565b60405180910390fd5b6000600460008060009054906101000a900473ffffffffffffffffffffffffffffffffffffffff1673ffffffffffffffffffffffffffffffffffffffff16600360009054906101000a900473ffffffffffffffffffffffffffffffffffffffff1673ffffffffffffffffffffffffffffffffffffffff1614610c275760008054906101000a900473ffffffffffffffffffffffffffffffffffffffff16610c4b565b600160009054906101000a900473ffffffffffffffffffffffffffffffffffffffff165b73ffffffffffffffffffffffffffffffffffffffff1673ffffffffffffffffffffffffffffffffffffffff1681526020019081526020016000208054905011610cc9576040517f08c379a0000000000000000000000000000000000000000000000000000000008152600401610cc090614744565b60405180910390fd5b60006003811115610cdd57610cdc6140ec565b5b816003811115610cf057610cef6140ec565b5b03610d30576040517f08c379a0000000000000000000000000000000000000000000000000000000008152600401610d27906147b0565b60405180910390fd5b80600460008060009054906101000a900473ffffffffffffffffffffffffffffffffffffffff1673ffffffffffffffffffffffffffffffffffffffff16600360009054906101000a900473ffffffffffffffffffffffffffffffffffffffff1673ffffffffffffffffffffffffffffffffffffffff1614610dd15760008054906101000a900473ffffffffffffffffffffffffffffffffffffffff16610df5565b600160009054906101000a900473ffffffffffffffffffffffffffffffffffffffff165b73ffffffffffffffffffffffffffffffffffffffff1673ffffffffffffffffffffffffffffffffffffffff1681526020019081526020016000206001600460008060009054906101000a900473ffffffffffffffffffffffffffffffffffffffff1673ffffffffffffffffffffffffffffffffffffffff16600360009054906101000a900473ffffffffffffffffffffffffffffffffffffffff1673ffffffffffffffffffffffffffffffffffffffff1614610ed15760008054906101000a900473ffffffffffffffffffffffffffffffffffffffff16610ef5565b600160009054906101000a900473ffffffffffffffffffffffffffffffffffffffff165b73ffffffffffffffffffffffffffffffffffffffff1673ffffffffffffffffffffffffffffffffffffffff16815260200190815260200160002080549050610f3d9190614632565b81548110610f4e57610f4d6144fc565b5b9060005260206000200160000160026101000a81548160ff02191690836003811115610f7d57610f7c6140ec565b5b021790555060008054906101000a900473ffffffffffffffffffffffffffffffffffffffff1673ffffffffffffffffffffffffffffffffffffffff16600360009054906101000a900473ffffffffffffffffffffffffffffffffffffffff1673ffffffffffffffffffffffffffffffffffffffff161461101d5760008054906101000a900473ffffffffffffffffffffffffffffffffffffffff16611041565b600160009054906101000a900473ffffffffffffffffffffffffffffffffffffffff165b73ffffffffffffffffffffffffffffffffffffffff167fe747f603e7cb5da9aada1641bae96bc4e34cb86e525d6a3ed409f1c52069f4ab600460008060009054906101000a900473ffffffffffffffffffffffffffffffffffffffff1673ffffffffffffffffffffffffffffffffffffffff16600360009054906101000a900473ffffffffffffffffffffffffffffffffffffffff1673ffffffffffffffffffffffffffffffffffffffff16146111185760008054906101000a900473ffffffffffffffffffffffffffffffffffffffff1661113c565b600160009054906101000a900473ffffffffffffffffffffffffffffffffffffffff165b73ffffffffffffffffffffffffffffffffffffffff1673ffffffffffffffffffffffffffffffffffffffff1681526020019081526020016000206001600460008060009054906101000a900473ffffffffffffffffffffffffffffffffffffffff1673ffffffffffffffffffffffffffffffffffffffff16600360009054906101000a900473ffffffffffffffffffffffffffffffffffffffff1673ffffffffffffffffffffffffffffffffffffffff16146112185760008054906101000a900473ffffffffffffffffffffffffffffffffffffffff1661123c565b600160009054906101000a900473ffffffffffffffffffffffffffffffffffffffff165b73ffffffffffffffffffffffffffffffffffffffff1673ffffffffffffffffffffffffffffffffffffffff168152602001908152602001600020805490506112849190614632565b81548110611295576112946144fc565b5b9060005260206000200160000160009054906101000a900460ff16600460008060009054906101000a900473ffffffffffffffffffffffffffffffffffffffff1673ffffffffffffffffffffffffffffffffffffffff16600360009054906101000a900473ffffffffffffffffffffffffffffffffffffffff1673ffffffffffffffffffffffffffffffffffffffff16146113505760008054906101000a900473ffffffffffffffffffffffffffffffffffffffff16611374565b600160009054906101000a900473ffffffffffffffffffffffffffffffffffffffff165b73ffffffffffffffffffffffffffffffffffffffff1673ffffffffffffffffffffffffffffffffffffffff1681526020019081526020016000206001600460008060009054906101000a900473ffffffffffffffffffffffffffffffffffffffff1673ffffffffffffffffffffffffffffffffffffffff16600360009054906101000a900473ffffffffffffffffffffffffffffffffffffffff1673ffffffffffffffffffffffffffffffffffffffff16146114505760008054906101000a900473ffffffffffffffffffffffffffffffffffffffff16611474565b600160009054906101000a900473ffffffffffffffffffffffffffffffffffffffff165b73ffffffffffffffffffffffffffffffffffffffff1673ffffffffffffffffffffffffffffffffffffffff168152602001908152602001600020805490506114bc9190614632565b815481106114cd576114cc6144fc565b5b9060005260206000200160000160019054906101000a900460ff16846040516114f8939291906142de565b60405180910390a2611508613bb1565b50565b60008054906101000a900473ffffffffffffffffffffffffffffffffffffffff1673ffffffffffffffffffffffffffffffffffffffff163373ffffffffffffffffffffffffffffffffffffffff1614806115b25750600160009054906101000a900473ffffffffffffffffffffffffffffffffffffffff1673ffffffffffffffffffffffffffffffffffffffff163373ffffffffffffffffffffffffffffffffffffffff16145b6115f1576040517f08c379a00000000000000000000000000000000000000000000000000000000081526004016115e890614398565b60405180910390fd5b600360149054906101000a900460ff16611640576040517f08c379a000000000000000000000000000000000000000000000000000000000815260040161163790614404565b60405180910390fd5b600360159054906101000a900460ff1615611690576040517f08c379a000000000000000000000000000000000000000000000000000000000815260040161168790614577565b60405180910390fd5b600360009054906101000a900473ffffffffffffffffffffffffffffffffffffffff1673ffffffffffffffffffffffffffffffffffffffff163373ffffffffffffffffffffffffffffffffffffffff1614611720576040517f08c379a0000000000000000000000000000000000000000000000000000000008152600401611717906145e3565b60405180910390fd5b6000600460008060009054906101000a900473ffffffffffffffffffffffffffffffffffffffff1673ffffffffffffffffffffffffffffffffffffffff16600360009054906101000a900473ffffffffffffffffffffffffffffffffffffffff1673ffffffffffffffffffffffffffffffffffffffff16146117c25760008054906101000a900473ffffffffffffffffffffffffffffffffffffffff166117e6565b600160009054906101000a900473ffffffffffffffffffffffffffffffffffffffff165b73ffffffffffffffffffffffffffffffffffffffff1673ffffffffffffffffffffffffffffffffffffffff168152602001908152602001600020805490501480611a8c57506000600381111561183f5761183e6140ec565b5b600460008060009054906101000a900473ffffffffffffffffffffffffffffffffffffffff1673ffffffffffffffffffffffffffffffffffffffff16600360009054906101000a900473ffffffffffffffffffffffffffffffffffffffff1673ffffffffffffffffffffffffffffffffffffffff16146118df5760008054906101000a900473ffffffffffffffffffffffffffffffffffffffff16611903565b600160009054906101000a900473ffffffffffffffffffffffffffffffffffffffff165b73ffffffffffffffffffffffffffffffffffffffff1673ffffffffffffffffffffffffffffffffffffffff1681526020019081526020016000206001600460008060009054906101000a900473ffffffffffffffffffffffffffffffffffffffff1673ffffffffffffffffffffffffffffffffffffffff16600360009054906101000a900473ffffffffffffffffffffffffffffffffffffffff1673ffffffffffffffffffffffffffffffffffffffff16146119df5760008054906101000a900473ffffffffffffffffffffffffffffffffffffffff16611a03565b600160009054906101000a900473ffffffffffffffffffffffffffffffffffffffff165b73ffffffffffffffffffffffffffffffffffffffff1673ffffffffffffffffffffffffffffffffffffffff16815260200190815260200160002080549050611a4b9190614632565b81548110611a5c57611a5b6144fc565b5b9060005260206000200160000160029054906101000a900460ff166003811115611a8957611a886140ec565b5b14155b611acb576040517f08c379a0000000000000000000000000000000000000000000000000000000008152600401611ac290614868565b60405180910390fd5b818160008260ff1610158015611ae5575060098260ff1611155b611b24576040517f08c379a0000000000000000000000000000000000000000000000000000000008152600401611b1b906148d4565b60405180910390fd5b60008160ff1610158015611b3c575060098160ff1611155b611b7b576040517f08c379a0000000000000000000000000000000000000000000000000000000008152600401611b7290614940565b60405180910390fd5b600460003373ffffffffffffffffffffffffffffffffffffffff1673ffffffffffffffffffffffffffffffffffffffff16815260200190815260200160002060405180606001604052808660ff1681526020018560ff16815260200160006003811115611beb57611bea6140ec565b5b8152509080600181540180825580915050600190039060005260206000200160009091909190915060008201518160000160006101000a81548160ff021916908360ff16021790555060208201518160000160016101000a81548160ff021916908360ff16021790555060408201518160000160026101000a81548160ff02191690836003811115611c8057611c7f6140ec565b5b021790555050503373ffffffffffffffffffffffffffffffffffffffff167fe747f603e7cb5da9aada1641bae96bc4e34cb86e525d6a3ed409f1c52069f4ab85856000604051611cd2939291906142de565b60405180910390a260008054906101000a900473ffffffffffffffffffffffffffffffffffffffff1673ffffffffffffffffffffffffffffffffffffffff16600360009054906101000a900473ffffffffffffffffffffffffffffffffffffffff1673ffffffffffffffffffffffffffffffffffffffff1614611d755760008054906101000a900473ffffffffffffffffffffffffffffffffffffffff16611d99565b600160009054906101000a900473ffffffffffffffffffffffffffffffffffffffff165b600360006101000a81548173ffffffffffffffffffffffffffffffffffffffff021916908373ffffffffffffffffffffffffffffffffffffffff16021790555050505050565b600160009054906101000a900473ffffffffffffffffffffffffffffffffffffffff1681565b60008054906101000a900473ffffffffffffffffffffffffffffffffffffffff1673ffffffffffffffffffffffffffffffffffffffff163373ffffffffffffffffffffffffffffffffffffffff161480611eac5750600160009054906101000a900473ffffffffffffffffffffffffffffffffffffffff1673ffffffffffffffffffffffffffffffffffffffff163373ffffffffffffffffffffffffffffffffffffffff16145b611eeb576040517f08c379a0000000000000000000000000000000000000000000000000000000008152600401611ee290614398565b60405180910390fd5b600360149054906101000a900460ff16611f3a576040517f08c379a0000000000000000000000000000000000000000000000000000000008152600401611f3190614404565b60405180910390fd5b600360159054906101000a900460ff16611f89576040517f08c379a0000000000000000000000000000000000000000000000000000000008152600401611f8090614470565b60405180910390fd5b6011600560008060009054906101000a900473ffffffffffffffffffffffffffffffffffffffff1673ffffffffffffffffffffffffffffffffffffffff1673ffffffffffffffffffffffffffffffffffffffff168152602001908152602001600020805490501015612030576040517f08c379a0000000000000000000000000000000000000000000000000000000008152600401612027906149ac565b60405180910390fd5b601160056000600160009054906101000a900473ffffffffffffffffffffffffffffffffffffffff1673ffffffffffffffffffffffffffffffffffffffff1673ffffffffffffffffffffffffffffffffffffffff1681526020019081526020016000208054905010156120d8576040517f08c379a00000000000000000000000000000000000000000000000000000000081526004016120cf90614a18565b60405180910390fd5b60008060008060005b600460008060009054906101000a900473ffffffffffffffffffffffffffffffffffffffff1673ffffffffffffffffffffffffffffffffffffffff1673ffffffffffffffffffffffffffffffffffffffff168152602001908152602001600020805490508110156125cc576000600460008060009054906101000a900473ffffffffffffffffffffffffffffffffffffffff1673ffffffffffffffffffffffffffffffffffffffff1673ffffffffffffffffffffffffffffffffffffffff16815260200190815260200160002082815481106121c0576121bf6144fc565b5b9060005260206000200160000160009054906101000a900460ff1690506000600460008060009054906101000a900473ffffffffffffffffffffffffffffffffffffffff1673ffffffffffffffffffffffffffffffffffffffff1673ffffffffffffffffffffffffffffffffffffffff1681526020019081526020016000208381548110612251576122506144fc565b5b9060005260206000200160000160019054906101000a900460ff16905060005b60056000600160009054906101000a900473ffffffffffffffffffffffffffffffffffffffff1673ffffffffffffffffffffffffffffffffffffffff1673ffffffffffffffffffffffffffffffffffffffff168152602001908152602001600020805490508110156125bc578260ff1660056000600160009054906101000a900473ffffffffffffffffffffffffffffffffffffffff1673ffffffffffffffffffffffffffffffffffffffff1673ffffffffffffffffffffffffffffffffffffffff1681526020019081526020016000208281548110612354576123536144fc565b5b9060005260206000200160000160009054906101000a900460ff1660ff1614801561241157508160ff1660056000600160009054906101000a900473ffffffffffffffffffffffffffffffffffffffff1673ffffffffffffffffffffffffffffffffffffffff1673ffffffffffffffffffffffffffffffffffffffff16815260200190815260200160002082815481106123f1576123f06144fc565b5b9060005260206000200160000160019054906101000a900460ff1660ff16145b156125af57600380811115612429576124286140ec565b5b60056000600160009054906101000a900473ffffffffffffffffffffffffffffffffffffffff1673ffffffffffffffffffffffffffffffffffffffff1673ffffffffffffffffffffffffffffffffffffffff168152602001908152602001600020828154811061249c5761249b6144fc565b5b9060005260206000200160000160029054906101000a900460ff1660038111156124c9576124c86140ec565b5b036124e15787806124d990614a38565b9850506125aa565b600260038111156124f5576124f46140ec565b5b60056000600160009054906101000a900473ffffffffffffffffffffffffffffffffffffffff1673ffffffffffffffffffffffffffffffffffffffff1673ffffffffffffffffffffffffffffffffffffffff1681526020019081526020016000208281548110612568576125676144fc565b5b9060005260206000200160000160029054906101000a900460ff166003811115612595576125946140ec565b5b036125a95786806125a590614a38565b9750505b5b6125bc565b8080600101915050612271565b50505080806001019150506120e1565b5060005b60046000600160009054906101000a900473ffffffffffffffffffffffffffffffffffffffff1673ffffffffffffffffffffffffffffffffffffffff1673ffffffffffffffffffffffffffffffffffffffff16815260200190815260200160002080549050811015612ab957600060046000600160009054906101000a900473ffffffffffffffffffffffffffffffffffffffff1673ffffffffffffffffffffffffffffffffffffffff1673ffffffffffffffffffffffffffffffffffffffff16815260200190815260200160002082815481106126b1576126b06144fc565b5b9060005260206000200160000160009054906101000a900460ff169050600060046000600160009054906101000a900473ffffffffffffffffffffffffffffffffffffffff1673ffffffffffffffffffffffffffffffffffffffff1673ffffffffffffffffffffffffffffffffffffffff1681526020019081526020016000208381548110612743576127426144fc565b5b9060005260206000200160000160019054906101000a900460ff16905060005b600560008060009054906101000a900473ffffffffffffffffffffffffffffffffffffffff1673ffffffffffffffffffffffffffffffffffffffff1673ffffffffffffffffffffffffffffffffffffffff16815260200190815260200160002080549050811015612aa9578260ff16600560008060009054906101000a900473ffffffffffffffffffffffffffffffffffffffff1673ffffffffffffffffffffffffffffffffffffffff1673ffffffffffffffffffffffffffffffffffffffff1681526020019081526020016000208281548110612844576128436144fc565b5b9060005260206000200160000160009054906101000a900460ff1660ff1614801561290057508160ff16600560008060009054906101000a900473ffffffffffffffffffffffffffffffffffffffff1673ffffffffffffffffffffffffffffffffffffffff1673ffffffffffffffffffffffffffffffffffffffff16815260200190815260200160002082815481106128e0576128df6144fc565b5b9060005260206000200160000160019054906101000a900460ff1660ff16145b15612a9c57600380811115612918576129176140ec565b5b600560008060009054906101000a900473ffffffffffffffffffffffffffffffffffffffff1673ffffffffffffffffffffffffffffffffffffffff1673ffffffffffffffffffffffffffffffffffffffff168152602001908152602001600020828154811061298a576129896144fc565b5b9060005260206000200160000160029054906101000a900460ff1660038111156129b7576129b66140ec565b5b036129cf5785806129c790614a38565b965050612a97565b600260038111156129e3576129e26140ec565b5b600560008060009054906101000a900473ffffffffffffffffffffffffffffffffffffffff1673ffffffffffffffffffffffffffffffffffffffff1673ffffffffffffffffffffffffffffffffffffffff1681526020019081526020016000208281548110612a5557612a546144fc565b5b9060005260206000200160000160029054906101000a900460ff166003811115612a8257612a816140ec565b5b03612a96578480612a9290614a38565b9550505b5b612aa9565b8080600101915050612763565b50505080806001019150506125d0565b5060058460ff16148015612ad05750600c8360ff16145b8015612adf575060058260ff16105b8015612aee5750600c8160ff16105b15612b595760008054906101000a900473ffffffffffffffffffffffffffffffffffffffff16600260006101000a81548173ffffffffffffffffffffffffffffffffffffffff021916908373ffffffffffffffffffffffffffffffffffffffff160217905550613273565b60058260ff16148015612b6f5750600c8160ff16145b8015612b7e575060058460ff16105b8015612b8d5750600c8360ff16105b15612bfa57600160009054906101000a900473ffffffffffffffffffffffffffffffffffffffff16600260006101000a81548173ffffffffffffffffffffffffffffffffffffffff021916908373ffffffffffffffffffffffffffffffffffffffff160217905550613272565b60008060008060005b600460008060009054906101000a900473ffffffffffffffffffffffffffffffffffffffff1673ffffffffffffffffffffffffffffffffffffffff1673ffffffffffffffffffffffffffffffffffffffff16815260200190815260200160002080549050811015612e0d5760026003811115612c8257612c816140ec565b5b600460008060009054906101000a900473ffffffffffffffffffffffffffffffffffffffff1673ffffffffffffffffffffffffffffffffffffffff1673ffffffffffffffffffffffffffffffffffffffff1681526020019081526020016000208281548110612cf457612cf36144fc565b5b9060005260206000200160000160029054906101000a900460ff166003811115612d2157612d206140ec565b5b03612d39578480612d3190614a38565b955050612e00565b600380811115612d4c57612d4b6140ec565b5b600460008060009054906101000a900473ffffffffffffffffffffffffffffffffffffffff1673ffffffffffffffffffffffffffffffffffffffff1673ffffffffffffffffffffffffffffffffffffffff1681526020019081526020016000208281548110612dbe57612dbd6144fc565b5b9060005260206000200160000160029054906101000a900460ff166003811115612deb57612dea6140ec565b5b03612dff578380612dfb90614a38565b9450505b5b8080600101915050612c03565b5060005b60046000600160009054906101000a900473ffffffffffffffffffffffffffffffffffffffff1673ffffffffffffffffffffffffffffffffffffffff1673ffffffffffffffffffffffffffffffffffffffff1681526020019081526020016000208054905081101561301e5760026003811115612e9157612e906140ec565b5b60046000600160009054906101000a900473ffffffffffffffffffffffffffffffffffffffff1673ffffffffffffffffffffffffffffffffffffffff1673ffffffffffffffffffffffffffffffffffffffff1681526020019081526020016000208281548110612f0457612f036144fc565b5b9060005260206000200160000160029054906101000a900460ff166003811115612f3157612f306140ec565b5b03612f49578280612f4190614a38565b935050613011565b600380811115612f5c57612f5b6140ec565b5b60046000600160009054906101000a900473ffffffffffffffffffffffffffffffffffffffff1673ffffffffffffffffffffffffffffffffffffffff1673ffffffffffffffffffffffffffffffffffffffff1681526020019081526020016000208281548110612fcf57612fce6144fc565b5b9060005260206000200160000160029054906101000a900460ff166003811115612ffc57612ffb6140ec565b5b0361301057818061300c90614a38565b9250505b5b8080600101915050612e11565b5060058360ff16148015613035575060058860ff16105b156130a257600160009054906101000a900473ffffffffffffffffffffffffffffffffffffffff16600260006101000a81548173ffffffffffffffffffffffffffffffffffffffff021916908373ffffffffffffffffffffffffffffffffffffffff16021790555061326d565b60058160ff161480156130b8575060058660ff16105b156131235760008054906101000a900473ffffffffffffffffffffffffffffffffffffffff16600260006101000a81548173ffffffffffffffffffffffffffffffffffffffff021916908373ffffffffffffffffffffffffffffffffffffffff16021790555061326c565b600c8460ff161480156131395750600c8760ff16105b156131a657600160009054906101000a900473ffffffffffffffffffffffffffffffffffffffff16600260006101000a81548173ffffffffffffffffffffffffffffffffffffffff021916908373ffffffffffffffffffffffffffffffffffffffff16021790555061326b565b600c8260ff161480156131bc5750600c8560ff16105b156132275760008054906101000a900473ffffffffffffffffffffffffffffffffffffffff16600260006101000a81548173ffffffffffffffffffffffffffffffffffffffff021916908373ffffffffffffffffffffffffffffffffffffffff16021790555061326a565b6000600260006101000a81548173ffffffffffffffffffffffffffffffffffffffff021916908373ffffffffffffffffffffffffffffffffffffffff1602179055505b5b5b5b505050505b5b7f51b77d00d3c0b7e376e9ee146711ceb2c08e58a5dbe38055a618e52109f720c1600260009054906101000a900473ffffffffffffffffffffffffffffffffffffffff166040516132c49190613f9a565b60405180910390a150505050565b606060008054906101000a900473ffffffffffffffffffffffffffffffffffffffff1673ffffffffffffffffffffffffffffffffffffffff163373ffffffffffffffffffffffffffffffffffffffff16148061337b5750600160009054906101000a900473ffffffffffffffffffffffffffffffffffffffff1673ffffffffffffffffffffffffffffffffffffffff163373ffffffffffffffffffffffffffffffffffffffff16145b6133ba576040517f08c379a00000000000000000000000000000000000000000000000000000000081526004016133b190614398565b60405180910390fd5b600460008373ffffffffffffffffffffffffffffffffffffffff1673ffffffffffffffffffffffffffffffffffffffff168152602001908152602001600020805480602002602001604051908101604052809291908181526020016000905b828210156134bc578382906000526020600020016040518060600160405290816000820160009054906101000a900460ff1660ff1660ff1681526020016000820160019054906101000a900460ff1660ff1660ff1681526020016000820160029054906101000a900460ff166003811115613497576134966140ec565b5b60038111156134a9576134a86140ec565b5b8152505081526020019060010190613419565b505050509050919050565b60008054906101000a900473ffffffffffffffffffffffffffffffffffffffff1673ffffffffffffffffffffffffffffffffffffffff163373ffffffffffffffffffffffffffffffffffffffff16148061356e5750600160009054906101000a900473ffffffffffffffffffffffffffffffffffffffff1673ffffffffffffffffffffffffffffffffffffffff163373ffffffffffffffffffffffffffffffffffffffff16145b6135ad576040517f08c379a00000000000000000000000000000000000000000000000000000000081526004016135a490614398565b60405180910390fd5b600360149054906101000a900460ff166135fc576040517f08c379a00000000000000000000000000000000000000000000000000000000081526004016135f390614404565b60405180910390fd5b600360159054906101000a900460ff161561364c576040517f08c379a000000000000000000000000000000000000000000000000000000000815260040161364390614577565b60405180910390fd5b60008054906101000a900473ffffffffffffffffffffffffffffffffffffffff1673ffffffffffffffffffffffffffffffffffffffff16600360009054906101000a900473ffffffffffffffffffffffffffffffffffffffff1673ffffffffffffffffffffffffffffffffffffffff16146136e75760008054906101000a900473ffffffffffffffffffffffffffffffffffffffff1661370b565b600160009054906101000a900473ffffffffffffffffffffffffffffffffffffffff165b600260006101000a81548173ffffffffffffffffffffffffffffffffffffffff021916908373ffffffffffffffffffffffffffffffffffffffff1602179055506001600360156101000a81548160ff0219169083151502179055507f51b77d00d3c0b7e376e9ee146711ceb2c08e58a5dbe38055a618e52109f720c1600260009054906101000a900473ffffffffffffffffffffffffffffffffffffffff166040516137b79190613f9a565b60405180910390a1565b600360159054906101000a900460ff1681565b600460205281600052604060002081815481106137f057600080fd5b90600052602060002001600091509150508060000160009054906101000a900460ff16908060000160019054906101000a900460ff16908060000160029054906101000a900460ff16905083565b60008054906101000a900473ffffffffffffffffffffffffffffffffffffffff1673ffffffffffffffffffffffffffffffffffffffff163373ffffffffffffffffffffffffffffffffffffffff1614806138e55750600160009054906101000a900473ffffffffffffffffffffffffffffffffffffffff1673ffffffffffffffffffffffffffffffffffffffff163373ffffffffffffffffffffffffffffffffffffffff16145b613924576040517f08c379a000000000000000000000000000000000000000000000000000000000815260040161391b90614398565b60405180910390fd5b600360149054906101000a900460ff1615613974576040517f08c379a000000000000000000000000000000000000000000000000000000000815260040161396b90614aad565b60405180910390fd5b60008054906101000a900473ffffffffffffffffffffffffffffffffffffffff1673ffffffffffffffffffffffffffffffffffffffff163373ffffffffffffffffffffffffffffffffffffffff1614613a02576040517f08c379a00000000000000000000000000000000000000000000000000000000081526004016139f990614b19565b60405180910390fd5b6001600360146101000a81548160ff021916908315150217905550600160009054906101000a900473ffffffffffffffffffffffffffffffffffffffff16600360006101000a81548173ffffffffffffffffffffffffffffffffffffffff021916908373ffffffffffffffffffffffffffffffffffffffff1602179055507f55b25d7f9b5bf8ea934ba7079455d2ba00c68ea7e66c13695275f6b75b95e5f860008054906101000a900473ffffffffffffffffffffffffffffffffffffffff16600160009054906101000a900473ffffffffffffffffffffffffffffffffffffffff16604051613af3929190614b39565b60405180910390a1565b600260009054906101000a900473ffffffffffffffffffffffffffffffffffffffff1681565b60056020528160005260406000208181548110613b3f57600080fd5b90600052602060002001600091509150508060000160009054906101000a900460ff16908060000160019054906101000a900460ff16908060000160029054906101000a900460ff16905083565b60008054906101000a900473ffffffffffffffffffffffffffffffffffffffff1681565b6000805b600460003373ffffffffffffffffffffffffffffffffffffffff1673ffffffffffffffffffffffffffffffffffffffff16815260200190815260200160002080549050811015613cb157600380811115613c1257613c116140ec565b5b600460003373ffffffffffffffffffffffffffffffffffffffff1673ffffffffffffffffffffffffffffffffffffffff1681526020019081526020016000208281548110613c6357613c626144fc565b5b9060005260206000200160000160029054906101000a900460ff166003811115613c9057613c8f6140ec565b5b03613ca4578180613ca090614a38565b9250505b8080600101915050613bb5565b5060058160ff1603613cd9576001600360156101000a81548160ff0219169083151502179055505b50565b6000604051905090565b600080fd5b600080fd5b600080fd5b6000601f19601f8301169050919050565b7f4e487b7100000000000000000000000000000000000000000000000000000000600052604160045260246000fd5b613d3e82613cf5565b810181811067ffffffffffffffff82111715613d5d57613d5c613d06565b5b80604052505050565b6000613d70613cdc565b9050613d7c8282613d35565b919050565b600067ffffffffffffffff821115613d9c57613d9b613d06565b5b602082029050602081019050919050565b600080fd5b600080fd5b600060ff82169050919050565b613dcd81613db7565b8114613dd857600080fd5b50565b600081359050613dea81613dc4565b92915050565b60048110613dfd57600080fd5b50565b600081359050613e0f81613df0565b92915050565b600060608284031215613e2b57613e2a613db2565b5b613e356060613d66565b90506000613e4584828501613ddb565b6000830152506020613e5984828501613ddb565b6020830152506040613e6d84828501613e00565b60408301525092915050565b6000613e8c613e8784613d81565b613d66565b90508083825260208201905060608402830185811115613eaf57613eae613dad565b5b835b81811015613ed85780613ec48882613e15565b845260208401935050606081019050613eb1565b5050509392505050565b600082601f830112613ef757613ef6613cf0565b5b8135613f07848260208601613e79565b91505092915050565b600060208284031215613f2657613f25613ce6565b5b600082013567ffffffffffffffff811115613f4457613f43613ceb565b5b613f5084828501613ee2565b91505092915050565b600073ffffffffffffffffffffffffffffffffffffffff82169050919050565b6000613f8482613f59565b9050919050565b613f9481613f79565b82525050565b6000602082019050613faf6000830184613f8b565b92915050565b60008115159050919050565b613fca81613fb5565b82525050565b6000602082019050613fe56000830184613fc1565b92915050565b60006020828403121561400157614000613ce6565b5b600061400f84828501613e00565b91505092915050565b6000806040838503121561402f5761402e613ce6565b5b600061403d85828601613ddb565b925050602061404e85828601613ddb565b9150509250929050565b61406181613f79565b811461406c57600080fd5b50565b60008135905061407e81614058565b92915050565b60006020828403121561409a57614099613ce6565b5b60006140a88482850161406f565b91505092915050565b600081519050919050565b600082825260208201905092915050565b6000819050602082019050919050565b6140e681613db7565b82525050565b7f4e487b7100000000000000000000000000000000000000000000000000000000600052602160045260246000fd5b6004811061412c5761412b6140ec565b5b50565b600081905061413d8261411b565b919050565b600061414d8261412f565b9050919050565b61415d81614142565b82525050565b60608201600082015161417960008501826140dd565b50602082015161418c60208501826140dd565b50604082015161419f6040850182614154565b50505050565b60006141b18383614163565b60608301905092915050565b6000602082019050919050565b60006141d5826140b1565b6141df81856140bc565b93506141ea836140cd565b8060005b8381101561421b57815161420288826141a5565b975061420d836141bd565b9250506001810190506141ee565b5085935050505092915050565b6000602082019050818103600083015261424281846141ca565b905092915050565b6000819050919050565b61425d8161424a565b811461426857600080fd5b50565b60008135905061427a81614254565b92915050565b6000806040838503121561429757614296613ce6565b5b60006142a58582860161406f565b92505060206142b68582860161426b565b9150509250929050565b6142c981613db7565b82525050565b6142d881614142565b82525050565b60006060820190506142f360008301866142c0565b61430060208301856142c0565b61430d60408301846142cf565b949350505050565b600082825260208201905092915050565b7f596f7520617265206e6f74206120706c6179657220696e20746869732067616d60008201527f652e000000000000000000000000000000000000000000000000000000000000602082015250565b6000614382602283614315565b915061438d82614326565b604082019050919050565b600060208201905081810360008301526143b181614375565b9050919050565b7f5468652067616d6520686173206e6f742073746172746564207965742e000000600082015250565b60006143ee601d83614315565b91506143f9826143b8565b602082019050919050565b6000602082019050818103600083015261441d816143e1565b9050919050565b7f5468652067616d65206973206e6f74206f7665722e0000000000000000000000600082015250565b600061445a601583614315565b915061446582614424565b602082019050919050565b600060208201905081810360008301526144898161444d565b9050919050565b7f496e76616c696420677269642073697a65000000000000000000000000000000600082015250565b60006144c6601183614315565b91506144d182614490565b602082019050919050565b600060208201905081810360008301526144f5816144b9565b9050919050565b7f4e487b7100000000000000000000000000000000000000000000000000000000600052603260045260246000fd5b7f5468652067616d65206973206f7665722e000000000000000000000000000000600082015250565b6000614561601183614315565b915061456c8261452b565b602082019050919050565b6000602082019050818103600083015261459081614554565b9050919050565b7f4e6f7420796f7572207475726e2e000000000000000000000000000000000000600082015250565b60006145cd600e83614315565b91506145d882614597565b602082019050919050565b600060208201905081810360008301526145fc816145c0565b9050919050565b7f4e487b7100000000000000000000000000000000000000000000000000000000600052601160045260246000fd5b600061463d8261424a565b91506146488361424a565b92508282039050818111156146605761465f614603565b5b92915050565b7f4c6173742061747461636b206f6620616476657273617279206973206e6f742060008201527f756e6b6e6f776e2e000000000000000000000000000000000000000000000000602082015250565b60006146c2602883614315565b91506146cd82614666565b604082019050919050565b600060208201905081810360008301526146f1816146b5565b9050919050565b7f4e6f2061747461636b20746f2073657420737461747573000000000000000000600082015250565b600061472e601783614315565b9150614739826146f8565b602082019050919050565b6000602082019050818103600083015261475d81614721565b9050919050565b7f5374617475732063616e6e6f7420626520556e6b6e6f776e0000000000000000600082015250565b600061479a601883614315565b91506147a582614764565b602082019050919050565b600060208201905081810360008301526147c98161478d565b9050919050565b7f4c6173742061747461636b206f662061647665727361727920697320756e6b6e60008201527f6f776e2c20706c656173652063616c6c207365744c61737441747461636b537460208201527f617475732066697273742e000000000000000000000000000000000000000000604082015250565b6000614852604b83614315565b915061485d826147d0565b606082019050919050565b6000602082019050818103600083015261488181614845565b9050919050565b7f496e76616c6964207820636f6f7264696e6174652e0000000000000000000000600082015250565b60006148be601583614315565b91506148c982614888565b602082019050919050565b600060208201905081810360008301526148ed816148b1565b9050919050565b7f496e76616c6964207920636f6f7264696e6174652e0000000000000000000000600082015250565b600061492a601583614315565b9150614935826148f4565b602082019050919050565b600060208201905081810360008301526149598161491d565b9050919050565b7f486f73742067726964206e6f7420736574207965740000000000000000000000600082015250565b6000614996601583614315565b91506149a182614960565b602082019050919050565b600060208201905081810360008301526149c581614989565b9050919050565b7f47756573742067726964206e6f74207365742079657400000000000000000000600082015250565b6000614a02601683614315565b9150614a0d826149cc565b602082019050919050565b60006020820190508181036000830152614a31816149f5565b9050919050565b6000614a4382613db7565b915060ff8203614a5657614a55614603565b5b600182019050919050565b7f5468652067616d652068617320616c726561647920737461727465642e000000600082015250565b6000614a97601d83614315565b9150614aa282614a61565b602082019050919050565b60006020820190508181036000830152614ac681614a8a565b9050919050565b7f4f6e6c7920686f73742063616e207374617274207468652067616d652e000000600082015250565b6000614b03601d83614315565b9150614b0e82614acd565b602082019050919050565b60006020820190508181036000830152614b3281614af6565b9050919050565b6000604082019050614b4e6000830185613f8b565b614b5b6020830184613f8b565b939250505056fea26469706673582212208cd0189bc8007fd9951abf3785e05f9a816583dd5dadbbe6a52c94cc4fdca17d64736f6c63430008180033",
  "linkReferences": {},
  "deployedLinkReferences": {}
}