{
  "_format": "hh-sol-artifact-1",
  "contractName": "BattleShip",
  "sourceName": "contracts/Battleship.sol",
  "abi": [
    {
      "inputs": [
        {
          "internalType": "address",
          "name": "_guest",
          "type": "address"
        }
      ],
      "stateMutability": "nonpayable",
      "type": "constructor"
    },
    {
      "anonymous": false,
      "inputs": [
        {
          "indexed": true,
          "internalType": "address",
          "name": "attacker",
          "type": "address"
        },
        {
          "indexed": false,
          "internalType": "uint8",
          "name": "x",
          "type": "uint8"
        },
        {
          "indexed": false,
          "internalType": "uint8",
          "name": "y",
          "type": "uint8"
        },
        {
          "indexed": false,
          "internalType": "enum BattleShip.coordinateStatus",
          "name": "result",
          "type": "uint8"
        }
      ],
      "name": "Attack",
      "type": "event"
    },
    {
      "anonymous": false,
      "inputs": [
        {
          "indexed": false,
          "internalType": "address",
          "name": "winner",
          "type": "address"
        }
      ],
      "name": "GameEnded",
      "type": "event"
    },
    {
      "anonymous": false,
      "inputs": [
        {
          "indexed": false,
          "internalType": "address",
          "name": "host",
          "type": "address"
        },
        {
          "indexed": false,
          "internalType": "address",
          "name": "guest",
          "type": "address"
        }
      ],
      "name": "GameStarted",
      "type": "event"
    },
    {
      "inputs": [
        {
          "internalType": "uint8",
          "name": "_x",
          "type": "uint8"
        },
        {
          "internalType": "uint8",
          "name": "_y",
          "type": "uint8"
        },
        {
          "internalType": "enum BattleShip.coordinateStatus",
          "name": "_status",
          "type": "uint8"
        }
      ],
      "name": "attack",
      "outputs": [],
      "stateMutability": "nonpayable",
      "type": "function"
    },
    {
      "inputs": [],
      "name": "currentPlayer",
      "outputs": [
        {
          "internalType": "address",
          "name": "",
          "type": "address"
        }
      ],
      "stateMutability": "view",
      "type": "function"
    },
    {
      "inputs": [],
      "name": "endGameManually",
      "outputs": [],
      "stateMutability": "nonpayable",
      "type": "function"
    },
    {
      "inputs": [],
      "name": "gameOver",
      "outputs": [
        {
          "internalType": "bool",
          "name": "",
          "type": "bool"
        }
      ],
      "stateMutability": "view",
      "type": "function"
    },
    {
      "inputs": [],
      "name": "gameStarted",
      "outputs": [
        {
          "internalType": "bool",
          "name": "",
          "type": "bool"
        }
      ],
      "stateMutability": "view",
      "type": "function"
    },
    {
      "inputs": [
        {
          "internalType": "address",
          "name": "_player",
          "type": "address"
        }
      ],
      "name": "getAllAttacks",
      "outputs": [
        {
          "components": [
            {
              "internalType": "uint8",
              "name": "x",
              "type": "uint8"
            },
            {
              "internalType": "uint8",
              "name": "y",
              "type": "uint8"
            },
            {
              "internalType": "enum BattleShip.coordinateStatus",
              "name": "status",
              "type": "uint8"
            }
          ],
          "internalType": "struct BattleShip.Coordinate[]",
          "name": "",
          "type": "tuple[]"
        }
      ],
      "stateMutability": "view",
      "type": "function"
    },
    {
      "inputs": [],
      "name": "guest",
      "outputs": [
        {
          "internalType": "address",
          "name": "",
          "type": "address"
        }
      ],
      "stateMutability": "view",
      "type": "function"
    },
    {
      "inputs": [
        {
          "internalType": "address",
          "name": "",
          "type": "address"
        },
        {
          "internalType": "uint256",
          "name": "",
          "type": "uint256"
        }
      ],
      "name": "historyAttacks",
      "outputs": [
        {
          "internalType": "uint8",
          "name": "x",
          "type": "uint8"
        },
        {
          "internalType": "uint8",
          "name": "y",
          "type": "uint8"
        },
        {
          "internalType": "enum BattleShip.coordinateStatus",
          "name": "status",
          "type": "uint8"
        }
      ],
      "stateMutability": "view",
      "type": "function"
    },
    {
      "inputs": [],
      "name": "host",
      "outputs": [
        {
          "internalType": "address",
          "name": "",
          "type": "address"
        }
      ],
      "stateMutability": "view",
      "type": "function"
    },
    {
      "inputs": [],
      "name": "startGame",
      "outputs": [],
      "stateMutability": "nonpayable",
      "type": "function"
    },
    {
      "inputs": [],
      "name": "winner",
      "outputs": [
        {
          "internalType": "address",
          "name": "",
          "type": "address"
        }
      ],
      "stateMutability": "view",
      "type": "function"
    }
  ],
  "bytecode": "0x60806040523480156200001157600080fd5b5060405162001eb338038062001eb383398181016040528101906200003791906200015f565b336000806101000a81548173ffffffffffffffffffffffffffffffffffffffff021916908373ffffffffffffffffffffffffffffffffffffffff16021790555080600160006101000a81548173ffffffffffffffffffffffffffffffffffffffff021916908373ffffffffffffffffffffffffffffffffffffffff1602179055506000600360146101000a81548160ff0219169083151502179055506000600360156101000a81548160ff0219169083151502179055505062000191565b600080fd5b600073ffffffffffffffffffffffffffffffffffffffff82169050919050565b60006200012782620000fa565b9050919050565b62000139816200011a565b81146200014557600080fd5b50565b60008151905062000159816200012e565b92915050565b600060208284031215620001785762000177620000f5565b5b6000620001888482850162000148565b91505092915050565b611d1280620001a16000396000f3fe608060405234801561001057600080fd5b50600436106100a95760003560e01c8063b531ae6e11610071578063b531ae6e1461012e578063bdb337d11461015e578063c9b865711461017c578063d65ab5f2146101ae578063dfbf53ae146101b8578063f437bc59146101d6576100a9565b80634404a438146100ae5780635c532a3d146100cc5780635e123ce4146100d657806388cbb466146100f45780639a04f70414610110575b600080fd5b6100b66101f4565b6040516100c3919061143f565b60405180910390f35b6100d461021a565b005b6100de6105e4565b6040516100eb9190611475565b60405180910390f35b61010e600480360381019061010991906114f3565b6105f7565b005b610118610cbc565b604051610125919061143f565b60405180910390f35b61014860048036038101906101439190611572565b610ce2565b6040516101559190611716565b60405180910390f35b610166610ed7565b6040516101739190611475565b60405180910390f35b6101966004803603810190610191919061176e565b610eea565b6040516101a5939291906117cc565b60405180910390f35b6101b6610f54565b005b6101c0611211565b6040516101cd919061143f565b60405180910390f35b6101de611237565b6040516101eb919061143f565b60405180910390f35b600360009054906101000a900473ffffffffffffffffffffffffffffffffffffffff1681565b60008054906101000a900473ffffffffffffffffffffffffffffffffffffffff1673ffffffffffffffffffffffffffffffffffffffff163373ffffffffffffffffffffffffffffffffffffffff1614806102c15750600160009054906101000a900473ffffffffffffffffffffffffffffffffffffffff1673ffffffffffffffffffffffffffffffffffffffff163373ffffffffffffffffffffffffffffffffffffffff16145b610300576040517f08c379a00000000000000000000000000000000000000000000000000000000081526004016102f790611886565b60405180910390fd5b600360149054906101000a900460ff1661034f576040517f08c379a0000000000000000000000000000000000000000000000000000000008152600401610346906118f2565b60405180910390fd5b600360159054906101000a900460ff161561039f576040517f08c379a00000000000000000000000000000000000000000000000000000000081526004016103969061195e565b60405180910390fd5b600360009054906101000a900473ffffffffffffffffffffffffffffffffffffffff1673ffffffffffffffffffffffffffffffffffffffff163373ffffffffffffffffffffffffffffffffffffffff161461042f576040517f08c379a0000000000000000000000000000000000000000000000000000000008152600401610426906119ca565b60405180910390fd5b60008054906101000a900473ffffffffffffffffffffffffffffffffffffffff1673ffffffffffffffffffffffffffffffffffffffff16600360009054906101000a900473ffffffffffffffffffffffffffffffffffffffff1673ffffffffffffffffffffffffffffffffffffffff160361050c57600160009054906101000a900473ffffffffffffffffffffffffffffffffffffffff16600260006101000a81548173ffffffffffffffffffffffffffffffffffffffff021916908373ffffffffffffffffffffffffffffffffffffffff16021790555061056e565b60008054906101000a900473ffffffffffffffffffffffffffffffffffffffff16600260006101000a81548173ffffffffffffffffffffffffffffffffffffffff021916908373ffffffffffffffffffffffffffffffffffffffff1602179055505b6001600360156101000a81548160ff0219169083151502179055507f51b77d00d3c0b7e376e9ee146711ceb2c08e58a5dbe38055a618e52109f720c1600260009054906101000a900473ffffffffffffffffffffffffffffffffffffffff166040516105da919061143f565b60405180910390a1565b600360149054906101000a900460ff1681565b60008054906101000a900473ffffffffffffffffffffffffffffffffffffffff1673ffffffffffffffffffffffffffffffffffffffff163373ffffffffffffffffffffffffffffffffffffffff16148061069e5750600160009054906101000a900473ffffffffffffffffffffffffffffffffffffffff1673ffffffffffffffffffffffffffffffffffffffff163373ffffffffffffffffffffffffffffffffffffffff16145b6106dd576040517f08c379a00000000000000000000000000000000000000000000000000000000081526004016106d490611886565b60405180910390fd5b600360149054906101000a900460ff1661072c576040517f08c379a0000000000000000000000000000000000000000000000000000000008152600401610723906118f2565b60405180910390fd5b600360159054906101000a900460ff161561077c576040517f08c379a00000000000000000000000000000000000000000000000000000000081526004016107739061195e565b60405180910390fd5b600360009054906101000a900473ffffffffffffffffffffffffffffffffffffffff1673ffffffffffffffffffffffffffffffffffffffff163373ffffffffffffffffffffffffffffffffffffffff161461080c576040517f08c379a0000000000000000000000000000000000000000000000000000000008152600401610803906119ca565b60405180910390fd5b828260008260ff16101580156108255750600a8260ff16105b610864576040517f08c379a000000000000000000000000000000000000000000000000000000000815260040161085b90611a36565b60405180910390fd5b60008160ff161015801561087b5750600a8160ff16105b6108ba576040517f08c379a00000000000000000000000000000000000000000000000000000000081526004016108b190611aa2565b60405180910390fd5b60005b600460003373ffffffffffffffffffffffffffffffffffffffff1673ffffffffffffffffffffffffffffffffffffffff16815260200190815260200160002080549050811015610a50576000600460003373ffffffffffffffffffffffffffffffffffffffff1673ffffffffffffffffffffffffffffffffffffffff168152602001908152602001600020828154811061095a57610959611ac2565b5b9060005260206000200160000160009054906101000a900460ff1690506000600460003373ffffffffffffffffffffffffffffffffffffffff1673ffffffffffffffffffffffffffffffffffffffff16815260200190815260200160002083815481106109ca576109c9611ac2565b5b9060005260206000200160000160019054906101000a900460ff1690508760ff168260ff16148015610a0157508660ff168160ff16145b15610a41576040517f08c379a0000000000000000000000000000000000000000000000000000000008152600401610a3890611b63565b60405180910390fd5b505080806001019150506108bd565b50600460003373ffffffffffffffffffffffffffffffffffffffff1673ffffffffffffffffffffffffffffffffffffffff16815260200190815260200160002060405180606001604052808760ff1681526020018660ff168152602001856002811115610ac057610abf6115da565b5b8152509080600181540180825580915050600190039060005260206000200160009091909190915060008201518160000160006101000a81548160ff021916908360ff16021790555060208201518160000160016101000a81548160ff021916908360ff16021790555060408201518160000160026101000a81548160ff02191690836002811115610b5557610b546115da565b5b021790555050503373ffffffffffffffffffffffffffffffffffffffff167fe747f603e7cb5da9aada1641bae96bc4e34cb86e525d6a3ed409f1c52069f4ab868686604051610ba6939291906117cc565b60405180910390a2610bb661125b565b60008054906101000a900473ffffffffffffffffffffffffffffffffffffffff1673ffffffffffffffffffffffffffffffffffffffff16600360009054906101000a900473ffffffffffffffffffffffffffffffffffffffff1673ffffffffffffffffffffffffffffffffffffffff1614610c515760008054906101000a900473ffffffffffffffffffffffffffffffffffffffff16610c75565b600160009054906101000a900473ffffffffffffffffffffffffffffffffffffffff165b600360006101000a81548173ffffffffffffffffffffffffffffffffffffffff021916908373ffffffffffffffffffffffffffffffffffffffff1602179055505050505050565b600160009054906101000a900473ffffffffffffffffffffffffffffffffffffffff1681565b606060008054906101000a900473ffffffffffffffffffffffffffffffffffffffff1673ffffffffffffffffffffffffffffffffffffffff163373ffffffffffffffffffffffffffffffffffffffff161480610d8b5750600160009054906101000a900473ffffffffffffffffffffffffffffffffffffffff1673ffffffffffffffffffffffffffffffffffffffff163373ffffffffffffffffffffffffffffffffffffffff16145b610dca576040517f08c379a0000000000000000000000000000000000000000000000000000000008152600401610dc190611886565b60405180910390fd5b600460008373ffffffffffffffffffffffffffffffffffffffff1673ffffffffffffffffffffffffffffffffffffffff168152602001908152602001600020805480602002602001604051908101604052809291908181526020016000905b82821015610ecc578382906000526020600020016040518060600160405290816000820160009054906101000a900460ff1660ff1660ff1681526020016000820160019054906101000a900460ff1660ff1660ff1681526020016000820160029054906101000a900460ff166002811115610ea757610ea66115da565b5b6002811115610eb957610eb86115da565b5b8152505081526020019060010190610e29565b505050509050919050565b600360159054906101000a900460ff1681565b60046020528160005260406000208181548110610f0657600080fd5b90600052602060002001600091509150508060000160009054906101000a900460ff16908060000160019054906101000a900460ff16908060000160029054906101000a900460ff16905083565b60008054906101000a900473ffffffffffffffffffffffffffffffffffffffff1673ffffffffffffffffffffffffffffffffffffffff163373ffffffffffffffffffffffffffffffffffffffff161480610ffb5750600160009054906101000a900473ffffffffffffffffffffffffffffffffffffffff1673ffffffffffffffffffffffffffffffffffffffff163373ffffffffffffffffffffffffffffffffffffffff16145b61103a576040517f08c379a000000000000000000000000000000000000000000000000000000000815260040161103190611886565b60405180910390fd5b600360149054906101000a900460ff161561108a576040517f08c379a000000000000000000000000000000000000000000000000000000000815260040161108190611bcf565b60405180910390fd5b60008054906101000a900473ffffffffffffffffffffffffffffffffffffffff1673ffffffffffffffffffffffffffffffffffffffff163373ffffffffffffffffffffffffffffffffffffffff1614611118576040517f08c379a000000000000000000000000000000000000000000000000000000000815260040161110f90611c3b565b60405180910390fd5b6001600360146101000a81548160ff02191690831515021790555060008054906101000a900473ffffffffffffffffffffffffffffffffffffffff16600360006101000a81548173ffffffffffffffffffffffffffffffffffffffff021916908373ffffffffffffffffffffffffffffffffffffffff1602179055507f55b25d7f9b5bf8ea934ba7079455d2ba00c68ea7e66c13695275f6b75b95e5f860008054906101000a900473ffffffffffffffffffffffffffffffffffffffff16600160009054906101000a900473ffffffffffffffffffffffffffffffffffffffff16604051611207929190611c5b565b60405180910390a1565b600260009054906101000a900473ffffffffffffffffffffffffffffffffffffffff1681565b60008054906101000a900473ffffffffffffffffffffffffffffffffffffffff1681565b6000805b600460003373ffffffffffffffffffffffffffffffffffffffff1673ffffffffffffffffffffffffffffffffffffffff1681526020019081526020016000208054905081101561135b576002808111156112bc576112bb6115da565b5b600460003373ffffffffffffffffffffffffffffffffffffffff1673ffffffffffffffffffffffffffffffffffffffff168152602001908152602001600020828154811061130d5761130c611ac2565b5b9060005260206000200160000160029054906101000a900460ff16600281111561133a576113396115da565b5b0361134e57818061134a90611cb3565b9250505b808060010191505061125f565b5060058160ff16036113fb576001600360156101000a81548160ff02191690831515021790555033600260006101000a81548173ffffffffffffffffffffffffffffffffffffffff021916908373ffffffffffffffffffffffffffffffffffffffff1602179055507f51b77d00d3c0b7e376e9ee146711ceb2c08e58a5dbe38055a618e52109f720c1336040516113f2919061143f565b60405180910390a15b50565b600073ffffffffffffffffffffffffffffffffffffffff82169050919050565b6000611429826113fe565b9050919050565b6114398161141e565b82525050565b60006020820190506114546000830184611430565b92915050565b60008115159050919050565b61146f8161145a565b82525050565b600060208201905061148a6000830184611466565b92915050565b600080fd5b600060ff82169050919050565b6114ab81611495565b81146114b657600080fd5b50565b6000813590506114c8816114a2565b92915050565b600381106114db57600080fd5b50565b6000813590506114ed816114ce565b92915050565b60008060006060848603121561150c5761150b611490565b5b600061151a868287016114b9565b935050602061152b868287016114b9565b925050604061153c868287016114de565b9150509250925092565b61154f8161141e565b811461155a57600080fd5b50565b60008135905061156c81611546565b92915050565b60006020828403121561158857611587611490565b5b60006115968482850161155d565b91505092915050565b600081519050919050565b600082825260208201905092915050565b6000819050602082019050919050565b6115d481611495565b82525050565b7f4e487b7100000000000000000000000000000000000000000000000000000000600052602160045260246000fd5b6003811061161a576116196115da565b5b50565b600081905061162b82611609565b919050565b600061163b8261161d565b9050919050565b61164b81611630565b82525050565b60608201600082015161166760008501826115cb565b50602082015161167a60208501826115cb565b50604082015161168d6040850182611642565b50505050565b600061169f8383611651565b60608301905092915050565b6000602082019050919050565b60006116c38261159f565b6116cd81856115aa565b93506116d8836115bb565b8060005b838110156117095781516116f08882611693565b97506116fb836116ab565b9250506001810190506116dc565b5085935050505092915050565b6000602082019050818103600083015261173081846116b8565b905092915050565b6000819050919050565b61174b81611738565b811461175657600080fd5b50565b60008135905061176881611742565b92915050565b6000806040838503121561178557611784611490565b5b60006117938582860161155d565b92505060206117a485828601611759565b9150509250929050565b6117b781611495565b82525050565b6117c681611630565b82525050565b60006060820190506117e160008301866117ae565b6117ee60208301856117ae565b6117fb60408301846117bd565b949350505050565b600082825260208201905092915050565b7f596f7520617265206e6f74206120706c6179657220696e20746869732067616d60008201527f652e000000000000000000000000000000000000000000000000000000000000602082015250565b6000611870602283611803565b915061187b82611814565b604082019050919050565b6000602082019050818103600083015261189f81611863565b9050919050565b7f5468652067616d6520686173206e6f742073746172746564207965742e000000600082015250565b60006118dc601d83611803565b91506118e7826118a6565b602082019050919050565b6000602082019050818103600083015261190b816118cf565b9050919050565b7f5468652067616d65206973206f7665722e000000000000000000000000000000600082015250565b6000611948601183611803565b915061195382611912565b602082019050919050565b600060208201905081810360008301526119778161193b565b9050919050565b7f4e6f7420796f7572207475726e2e000000000000000000000000000000000000600082015250565b60006119b4600e83611803565b91506119bf8261197e565b602082019050919050565b600060208201905081810360008301526119e3816119a7565b9050919050565b7f496e76616c6964207820636f6f7264696e6174652e0000000000000000000000600082015250565b6000611a20601583611803565b9150611a2b826119ea565b602082019050919050565b60006020820190508181036000830152611a4f81611a13565b9050919050565b7f496e76616c6964207920636f6f7264696e6174652e0000000000000000000000600082015250565b6000611a8c601583611803565b9150611a9782611a56565b602082019050919050565b60006020820190508181036000830152611abb81611a7f565b9050919050565b7f4e487b7100000000000000000000000000000000000000000000000000000000600052603260045260246000fd5b7f596f75206861766520616c72656164792061747461636b65642074686973206360008201527f6f6f7264696e6174652e00000000000000000000000000000000000000000000602082015250565b6000611b4d602a83611803565b9150611b5882611af1565b604082019050919050565b60006020820190508181036000830152611b7c81611b40565b9050919050565b7f5468652067616d652068617320616c726561647920737461727465642e000000600082015250565b6000611bb9601d83611803565b9150611bc482611b83565b602082019050919050565b60006020820190508181036000830152611be881611bac565b9050919050565b7f4f6e6c7920686f73742063616e207374617274207468652067616d652e000000600082015250565b6000611c25601d83611803565b9150611c3082611bef565b602082019050919050565b60006020820190508181036000830152611c5481611c18565b9050919050565b6000604082019050611c706000830185611430565b611c7d6020830184611430565b9392505050565b7f4e487b7100000000000000000000000000000000000000000000000000000000600052601160045260246000fd5b6000611cbe82611495565b915060ff8203611cd157611cd0611c84565b5b60018201905091905056fea26469706673582212207cf179c0947a28244eed32c712664c52632b9d7e277f1582f00975e354c80f4b64736f6c63430008180033",
  "linkReferences": {},
  "deployedLinkReferences": {}
}