{
  "_format": "hh-sol-artifact-1",
  "contractName": "BattleShip",
  "sourceName": "contracts/Battleship.sol",
  "abi": [
    {
      "inputs": [
        {
          "internalType": "address",
          "name": "_guest",
          "type": "address"
        }
      ],
      "stateMutability": "nonpayable",
      "type": "constructor"
    },
    {
      "anonymous": false,
      "inputs": [
        {
          "indexed": true,
          "internalType": "address",
          "name": "attacker",
          "type": "address"
        },
        {
          "indexed": false,
          "internalType": "uint8",
          "name": "x",
          "type": "uint8"
        },
        {
          "indexed": false,
          "internalType": "uint8",
          "name": "y",
          "type": "uint8"
        },
        {
          "indexed": false,
          "internalType": "enum BattleShip.coordinateStatus",
          "name": "result",
          "type": "uint8"
        }
      ],
      "name": "Attack",
      "type": "event"
    },
    {
      "anonymous": false,
      "inputs": [
        {
          "indexed": false,
          "internalType": "address",
          "name": "winner",
          "type": "address"
        }
      ],
      "name": "GameEnded",
      "type": "event"
    },
    {
      "anonymous": false,
      "inputs": [
        {
          "indexed": false,
          "internalType": "address",
          "name": "host",
          "type": "address"
        },
        {
          "indexed": false,
          "internalType": "address",
          "name": "guest",
          "type": "address"
        }
      ],
      "name": "GameStarted",
      "type": "event"
    },
    {
      "inputs": [
        {
          "internalType": "uint8",
          "name": "_x",
          "type": "uint8"
        },
        {
          "internalType": "uint8",
          "name": "_y",
          "type": "uint8"
        },
        {
          "internalType": "enum BattleShip.coordinateStatus",
          "name": "_status",
          "type": "uint8"
        }
      ],
      "name": "attack",
      "outputs": [],
      "stateMutability": "nonpayable",
      "type": "function"
    },
    {
      "inputs": [],
      "name": "currentPlayer",
      "outputs": [
        {
          "internalType": "address",
          "name": "",
          "type": "address"
        }
      ],
      "stateMutability": "view",
      "type": "function"
    },
    {
      "inputs": [],
      "name": "gameOver",
      "outputs": [
        {
          "internalType": "bool",
          "name": "",
          "type": "bool"
        }
      ],
      "stateMutability": "view",
      "type": "function"
    },
    {
      "inputs": [],
      "name": "gameStarted",
      "outputs": [
        {
          "internalType": "bool",
          "name": "",
          "type": "bool"
        }
      ],
      "stateMutability": "view",
      "type": "function"
    },
    {
      "inputs": [],
      "name": "guest",
      "outputs": [
        {
          "internalType": "address",
          "name": "",
          "type": "address"
        }
      ],
      "stateMutability": "view",
      "type": "function"
    },
    {
      "inputs": [
        {
          "internalType": "address",
          "name": "",
          "type": "address"
        },
        {
          "internalType": "uint256",
          "name": "",
          "type": "uint256"
        }
      ],
      "name": "historyAttacks",
      "outputs": [
        {
          "internalType": "uint8",
          "name": "x",
          "type": "uint8"
        },
        {
          "internalType": "uint8",
          "name": "y",
          "type": "uint8"
        },
        {
          "internalType": "enum BattleShip.coordinateStatus",
          "name": "status",
          "type": "uint8"
        }
      ],
      "stateMutability": "view",
      "type": "function"
    },
    {
      "inputs": [],
      "name": "host",
      "outputs": [
        {
          "internalType": "address",
          "name": "",
          "type": "address"
        }
      ],
      "stateMutability": "view",
      "type": "function"
    },
    {
      "inputs": [],
      "name": "startGame",
      "outputs": [],
      "stateMutability": "nonpayable",
      "type": "function"
    },
    {
      "inputs": [],
      "name": "winner",
      "outputs": [
        {
          "internalType": "address",
          "name": "",
          "type": "address"
        }
      ],
      "stateMutability": "view",
      "type": "function"
    }
  ],
  "bytecode": "0x60806040523480156200001157600080fd5b50604051620017483803806200174883398181016040528101906200003791906200015f565b336000806101000a81548173ffffffffffffffffffffffffffffffffffffffff021916908373ffffffffffffffffffffffffffffffffffffffff16021790555080600160006101000a81548173ffffffffffffffffffffffffffffffffffffffff021916908373ffffffffffffffffffffffffffffffffffffffff1602179055506000600360146101000a81548160ff0219169083151502179055506000600360156101000a81548160ff0219169083151502179055505062000191565b600080fd5b600073ffffffffffffffffffffffffffffffffffffffff82169050919050565b60006200012782620000fa565b9050919050565b62000139816200011a565b81146200014557600080fd5b50565b60008151905062000159816200012e565b92915050565b600060208284031215620001785762000177620000f5565b5b6000620001888482850162000148565b91505092915050565b6115a780620001a16000396000f3fe608060405234801561001057600080fd5b50600436106100935760003560e01c8063bdb337d111610066578063bdb337d11461010e578063c9b865711461012c578063d65ab5f21461015e578063dfbf53ae14610168578063f437bc591461018657610093565b80634404a438146100985780635e123ce4146100b657806388cbb466146100d45780639a04f704146100f0575b600080fd5b6100a06101a4565b6040516100ad9190610e32565b60405180910390f35b6100be6101ca565b6040516100cb9190610e68565b60405180910390f35b6100ee60048036038101906100e99190610ee6565b6101dd565b005b6100f86108a2565b6040516101059190610e32565b60405180910390f35b6101166108c8565b6040516101239190610e68565b60405180910390f35b61014660048036038101906101419190610f9b565b6108db565b60405161015593929190611061565b60405180910390f35b610166610945565b005b610170610c04565b60405161017d9190610e32565b60405180910390f35b61018e610c2a565b60405161019b9190610e32565b60405180910390f35b600360009054906101000a900473ffffffffffffffffffffffffffffffffffffffff1681565b600360149054906101000a900460ff1681565b60008054906101000a900473ffffffffffffffffffffffffffffffffffffffff1673ffffffffffffffffffffffffffffffffffffffff163373ffffffffffffffffffffffffffffffffffffffff1614806102845750600160009054906101000a900473ffffffffffffffffffffffffffffffffffffffff1673ffffffffffffffffffffffffffffffffffffffff163373ffffffffffffffffffffffffffffffffffffffff16145b6102c3576040517f08c379a00000000000000000000000000000000000000000000000000000000081526004016102ba9061111b565b60405180910390fd5b600360149054906101000a900460ff16610312576040517f08c379a000000000000000000000000000000000000000000000000000000000815260040161030990611187565b60405180910390fd5b600360159054906101000a900460ff1615610362576040517f08c379a0000000000000000000000000000000000000000000000000000000008152600401610359906111f3565b60405180910390fd5b600360009054906101000a900473ffffffffffffffffffffffffffffffffffffffff1673ffffffffffffffffffffffffffffffffffffffff163373ffffffffffffffffffffffffffffffffffffffff16146103f2576040517f08c379a00000000000000000000000000000000000000000000000000000000081526004016103e99061125f565b60405180910390fd5b828260008260ff161015801561040b5750600a8260ff16105b61044a576040517f08c379a0000000000000000000000000000000000000000000000000000000008152600401610441906112cb565b60405180910390fd5b60008160ff16101580156104615750600a8160ff16105b6104a0576040517f08c379a000000000000000000000000000000000000000000000000000000000815260040161049790611337565b60405180910390fd5b60005b600460003373ffffffffffffffffffffffffffffffffffffffff1673ffffffffffffffffffffffffffffffffffffffff16815260200190815260200160002080549050811015610636576000600460003373ffffffffffffffffffffffffffffffffffffffff1673ffffffffffffffffffffffffffffffffffffffff16815260200190815260200160002082815481106105405761053f611357565b5b9060005260206000200160000160009054906101000a900460ff1690506000600460003373ffffffffffffffffffffffffffffffffffffffff1673ffffffffffffffffffffffffffffffffffffffff16815260200190815260200160002083815481106105b0576105af611357565b5b9060005260206000200160000160019054906101000a900460ff1690508760ff168260ff161480156105e757508660ff168160ff16145b15610627576040517f08c379a000000000000000000000000000000000000000000000000000000000815260040161061e906113f8565b60405180910390fd5b505080806001019150506104a3565b50600460003373ffffffffffffffffffffffffffffffffffffffff1673ffffffffffffffffffffffffffffffffffffffff16815260200190815260200160002060405180606001604052808760ff1681526020018660ff1681526020018560028111156106a6576106a5610fea565b5b8152509080600181540180825580915050600190039060005260206000200160009091909190915060008201518160000160006101000a81548160ff021916908360ff16021790555060208201518160000160016101000a81548160ff021916908360ff16021790555060408201518160000160026101000a81548160ff0219169083600281111561073b5761073a610fea565b5b021790555050503373ffffffffffffffffffffffffffffffffffffffff167fe747f603e7cb5da9aada1641bae96bc4e34cb86e525d6a3ed409f1c52069f4ab86868660405161078c93929190611061565b60405180910390a261079c610c4e565b60008054906101000a900473ffffffffffffffffffffffffffffffffffffffff1673ffffffffffffffffffffffffffffffffffffffff16600360009054906101000a900473ffffffffffffffffffffffffffffffffffffffff1673ffffffffffffffffffffffffffffffffffffffff16146108375760008054906101000a900473ffffffffffffffffffffffffffffffffffffffff1661085b565b600160009054906101000a900473ffffffffffffffffffffffffffffffffffffffff165b600360006101000a81548173ffffffffffffffffffffffffffffffffffffffff021916908373ffffffffffffffffffffffffffffffffffffffff1602179055505050505050565b600160009054906101000a900473ffffffffffffffffffffffffffffffffffffffff1681565b600360159054906101000a900460ff1681565b600460205281600052604060002081815481106108f757600080fd5b90600052602060002001600091509150508060000160009054906101000a900460ff16908060000160019054906101000a900460ff16908060000160029054906101000a900460ff16905083565b60008054906101000a900473ffffffffffffffffffffffffffffffffffffffff1673ffffffffffffffffffffffffffffffffffffffff163373ffffffffffffffffffffffffffffffffffffffff1614806109ec5750600160009054906101000a900473ffffffffffffffffffffffffffffffffffffffff1673ffffffffffffffffffffffffffffffffffffffff163373ffffffffffffffffffffffffffffffffffffffff16145b610a2b576040517f08c379a0000000000000000000000000000000000000000000000000000000008152600401610a229061111b565b60405180910390fd5b600360149054906101000a900460ff1615610a7b576040517f08c379a0000000000000000000000000000000000000000000000000000000008152600401610a7290611464565b60405180910390fd5b60008054906101000a900473ffffffffffffffffffffffffffffffffffffffff1673ffffffffffffffffffffffffffffffffffffffff163373ffffffffffffffffffffffffffffffffffffffff1614610b09576040517f08c379a0000000000000000000000000000000000000000000000000000000008152600401610b00906114d0565b60405180910390fd5b6001600360146101000a81548160ff021916908315150217905550600160009054906101000a900473ffffffffffffffffffffffffffffffffffffffff16600360006101000a81548173ffffffffffffffffffffffffffffffffffffffff021916908373ffffffffffffffffffffffffffffffffffffffff1602179055507f55b25d7f9b5bf8ea934ba7079455d2ba00c68ea7e66c13695275f6b75b95e5f860008054906101000a900473ffffffffffffffffffffffffffffffffffffffff16600160009054906101000a900473ffffffffffffffffffffffffffffffffffffffff16604051610bfa9291906114f0565b60405180910390a1565b600260009054906101000a900473ffffffffffffffffffffffffffffffffffffffff1681565b60008054906101000a900473ffffffffffffffffffffffffffffffffffffffff1681565b6000805b600460003373ffffffffffffffffffffffffffffffffffffffff1673ffffffffffffffffffffffffffffffffffffffff16815260200190815260200160002080549050811015610d4e57600280811115610caf57610cae610fea565b5b600460003373ffffffffffffffffffffffffffffffffffffffff1673ffffffffffffffffffffffffffffffffffffffff1681526020019081526020016000208281548110610d0057610cff611357565b5b9060005260206000200160000160029054906101000a900460ff166002811115610d2d57610d2c610fea565b5b03610d41578180610d3d90611548565b9250505b8080600101915050610c52565b5060058160ff1603610dee576001600360156101000a81548160ff02191690831515021790555033600260006101000a81548173ffffffffffffffffffffffffffffffffffffffff021916908373ffffffffffffffffffffffffffffffffffffffff1602179055507f51b77d00d3c0b7e376e9ee146711ceb2c08e58a5dbe38055a618e52109f720c133604051610de59190610e32565b60405180910390a15b50565b600073ffffffffffffffffffffffffffffffffffffffff82169050919050565b6000610e1c82610df1565b9050919050565b610e2c81610e11565b82525050565b6000602082019050610e476000830184610e23565b92915050565b60008115159050919050565b610e6281610e4d565b82525050565b6000602082019050610e7d6000830184610e59565b92915050565b600080fd5b600060ff82169050919050565b610e9e81610e88565b8114610ea957600080fd5b50565b600081359050610ebb81610e95565b92915050565b60038110610ece57600080fd5b50565b600081359050610ee081610ec1565b92915050565b600080600060608486031215610eff57610efe610e83565b5b6000610f0d86828701610eac565b9350506020610f1e86828701610eac565b9250506040610f2f86828701610ed1565b9150509250925092565b610f4281610e11565b8114610f4d57600080fd5b50565b600081359050610f5f81610f39565b92915050565b6000819050919050565b610f7881610f65565b8114610f8357600080fd5b50565b600081359050610f9581610f6f565b92915050565b60008060408385031215610fb257610fb1610e83565b5b6000610fc085828601610f50565b9250506020610fd185828601610f86565b9150509250929050565b610fe481610e88565b82525050565b7f4e487b7100000000000000000000000000000000000000000000000000000000600052602160045260246000fd5b6003811061102a57611029610fea565b5b50565b600081905061103b82611019565b919050565b600061104b8261102d565b9050919050565b61105b81611040565b82525050565b60006060820190506110766000830186610fdb565b6110836020830185610fdb565b6110906040830184611052565b949350505050565b600082825260208201905092915050565b7f596f7520617265206e6f74206120706c6179657220696e20746869732067616d60008201527f652e000000000000000000000000000000000000000000000000000000000000602082015250565b6000611105602283611098565b9150611110826110a9565b604082019050919050565b60006020820190508181036000830152611134816110f8565b9050919050565b7f5468652067616d6520686173206e6f742073746172746564207965742e000000600082015250565b6000611171601d83611098565b915061117c8261113b565b602082019050919050565b600060208201905081810360008301526111a081611164565b9050919050565b7f5468652067616d65206973206f7665722e000000000000000000000000000000600082015250565b60006111dd601183611098565b91506111e8826111a7565b602082019050919050565b6000602082019050818103600083015261120c816111d0565b9050919050565b7f4e6f7420796f7572207475726e2e000000000000000000000000000000000000600082015250565b6000611249600e83611098565b915061125482611213565b602082019050919050565b600060208201905081810360008301526112788161123c565b9050919050565b7f496e76616c6964207820636f6f7264696e6174652e0000000000000000000000600082015250565b60006112b5601583611098565b91506112c08261127f565b602082019050919050565b600060208201905081810360008301526112e4816112a8565b9050919050565b7f496e76616c6964207920636f6f7264696e6174652e0000000000000000000000600082015250565b6000611321601583611098565b915061132c826112eb565b602082019050919050565b6000602082019050818103600083015261135081611314565b9050919050565b7f4e487b7100000000000000000000000000000000000000000000000000000000600052603260045260246000fd5b7f596f75206861766520616c72656164792061747461636b65642074686973206360008201527f6f6f7264696e6174652e00000000000000000000000000000000000000000000602082015250565b60006113e2602a83611098565b91506113ed82611386565b604082019050919050565b60006020820190508181036000830152611411816113d5565b9050919050565b7f5468652067616d652068617320616c726561647920737461727465642e000000600082015250565b600061144e601d83611098565b915061145982611418565b602082019050919050565b6000602082019050818103600083015261147d81611441565b9050919050565b7f4f6e6c7920686f73742063616e207374617274207468652067616d652e000000600082015250565b60006114ba601d83611098565b91506114c582611484565b602082019050919050565b600060208201905081810360008301526114e9816114ad565b9050919050565b60006040820190506115056000830185610e23565b6115126020830184610e23565b9392505050565b7f4e487b7100000000000000000000000000000000000000000000000000000000600052601160045260246000fd5b600061155382610e88565b915060ff820361156657611565611519565b5b60018201905091905056fea26469706673582212209a3e8835e448799b201fcb57e9e3ffdf583a135b3b0bb13591d4f9cb7fcf425164736f6c63430008180033",
  "linkReferences": {},
  "deployedLinkReferences": {}
}