{
  "_format": "hh-sol-artifact-1",
  "contractName": "BattleShip",
  "sourceName": "contracts/Battleship.sol",
  "abi": [
    {
      "inputs": [
        {
          "internalType": "address",
          "name": "_guest",
          "type": "address"
        }
      ],
      "stateMutability": "nonpayable",
      "type": "constructor"
    },
    {
      "anonymous": false,
      "inputs": [
        {
          "indexed": true,
          "internalType": "address",
          "name": "attacker",
          "type": "address"
        },
        {
          "indexed": false,
          "internalType": "uint8",
          "name": "x",
          "type": "uint8"
        },
        {
          "indexed": false,
          "internalType": "uint8",
          "name": "y",
          "type": "uint8"
        },
        {
          "indexed": false,
          "internalType": "enum BattleShip.coordinateStatus",
          "name": "result",
          "type": "uint8"
        }
      ],
      "name": "Attack",
      "type": "event"
    },
    {
      "anonymous": false,
      "inputs": [
        {
          "indexed": false,
          "internalType": "address",
          "name": "winner",
          "type": "address"
        }
      ],
      "name": "GameEnded",
      "type": "event"
    },
    {
      "anonymous": false,
      "inputs": [
        {
          "indexed": false,
          "internalType": "address",
          "name": "host",
          "type": "address"
        },
        {
          "indexed": false,
          "internalType": "address",
          "name": "guest",
          "type": "address"
        }
      ],
      "name": "GameStarted",
      "type": "event"
    },
    {
      "inputs": [
        {
          "internalType": "uint8",
          "name": "_x",
          "type": "uint8"
        },
        {
          "internalType": "uint8",
          "name": "_y",
          "type": "uint8"
        },
        {
          "internalType": "enum BattleShip.coordinateStatus",
          "name": "_status",
          "type": "uint8"
        }
      ],
      "name": "attack",
      "outputs": [],
      "stateMutability": "nonpayable",
      "type": "function"
    },
    {
      "inputs": [],
      "name": "currentPlayer",
      "outputs": [
        {
          "internalType": "address",
          "name": "",
          "type": "address"
        }
      ],
      "stateMutability": "view",
      "type": "function"
    },
    {
      "inputs": [],
      "name": "gameOver",
      "outputs": [
        {
          "internalType": "bool",
          "name": "",
          "type": "bool"
        }
      ],
      "stateMutability": "view",
      "type": "function"
    },
    {
      "inputs": [],
      "name": "gameStarted",
      "outputs": [
        {
          "internalType": "bool",
          "name": "",
          "type": "bool"
        }
      ],
      "stateMutability": "view",
      "type": "function"
    },
    {
      "inputs": [
        {
          "internalType": "address",
          "name": "_player",
          "type": "address"
        }
      ],
      "name": "getAllAttacks",
      "outputs": [
        {
          "components": [
            {
              "internalType": "uint8",
              "name": "x",
              "type": "uint8"
            },
            {
              "internalType": "uint8",
              "name": "y",
              "type": "uint8"
            },
            {
              "internalType": "enum BattleShip.coordinateStatus",
              "name": "status",
              "type": "uint8"
            }
          ],
          "internalType": "struct BattleShip.Coordinate[]",
          "name": "",
          "type": "tuple[]"
        }
      ],
      "stateMutability": "view",
      "type": "function"
    },
    {
      "inputs": [],
      "name": "guest",
      "outputs": [
        {
          "internalType": "address",
          "name": "",
          "type": "address"
        }
      ],
      "stateMutability": "view",
      "type": "function"
    },
    {
      "inputs": [
        {
          "internalType": "address",
          "name": "",
          "type": "address"
        },
        {
          "internalType": "uint256",
          "name": "",
          "type": "uint256"
        }
      ],
      "name": "historyAttacks",
      "outputs": [
        {
          "internalType": "uint8",
          "name": "x",
          "type": "uint8"
        },
        {
          "internalType": "uint8",
          "name": "y",
          "type": "uint8"
        },
        {
          "internalType": "enum BattleShip.coordinateStatus",
          "name": "status",
          "type": "uint8"
        }
      ],
      "stateMutability": "view",
      "type": "function"
    },
    {
      "inputs": [],
      "name": "host",
      "outputs": [
        {
          "internalType": "address",
          "name": "",
          "type": "address"
        }
      ],
      "stateMutability": "view",
      "type": "function"
    },
    {
      "inputs": [],
      "name": "startGame",
      "outputs": [],
      "stateMutability": "nonpayable",
      "type": "function"
    },
    {
      "inputs": [],
      "name": "winner",
      "outputs": [
        {
          "internalType": "address",
          "name": "",
          "type": "address"
        }
      ],
      "stateMutability": "view",
      "type": "function"
    }
  ],
  "bytecode": "0x60806040523480156200001157600080fd5b5060405162001ad638038062001ad683398181016040528101906200003791906200015f565b336000806101000a81548173ffffffffffffffffffffffffffffffffffffffff021916908373ffffffffffffffffffffffffffffffffffffffff16021790555080600160006101000a81548173ffffffffffffffffffffffffffffffffffffffff021916908373ffffffffffffffffffffffffffffffffffffffff1602179055506000600360146101000a81548160ff0219169083151502179055506000600360156101000a81548160ff0219169083151502179055505062000191565b600080fd5b600073ffffffffffffffffffffffffffffffffffffffff82169050919050565b60006200012782620000fa565b9050919050565b62000139816200011a565b81146200014557600080fd5b50565b60008151905062000159816200012e565b92915050565b600060208284031215620001785762000177620000f5565b5b6000620001888482850162000148565b91505092915050565b61193580620001a16000396000f3fe608060405234801561001057600080fd5b506004361061009e5760003560e01c8063bdb337d111610066578063bdb337d114610149578063c9b8657114610167578063d65ab5f214610199578063dfbf53ae146101a3578063f437bc59146101c15761009e565b80634404a438146100a35780635e123ce4146100c157806388cbb466146100df5780639a04f704146100fb578063b531ae6e14610119575b600080fd5b6100ab6101df565b6040516100b89190611062565b60405180910390f35b6100c9610205565b6040516100d69190611098565b60405180910390f35b6100f960048036038101906100f49190611116565b610218565b005b6101036108dd565b6040516101109190611062565b60405180910390f35b610133600480360381019061012e9190611195565b610903565b6040516101409190611339565b60405180910390f35b610151610af8565b60405161015e9190611098565b60405180910390f35b610181600480360381019061017c9190611391565b610b0b565b604051610190939291906113ef565b60405180910390f35b6101a1610b75565b005b6101ab610e34565b6040516101b89190611062565b60405180910390f35b6101c9610e5a565b6040516101d69190611062565b60405180910390f35b600360009054906101000a900473ffffffffffffffffffffffffffffffffffffffff1681565b600360149054906101000a900460ff1681565b60008054906101000a900473ffffffffffffffffffffffffffffffffffffffff1673ffffffffffffffffffffffffffffffffffffffff163373ffffffffffffffffffffffffffffffffffffffff1614806102bf5750600160009054906101000a900473ffffffffffffffffffffffffffffffffffffffff1673ffffffffffffffffffffffffffffffffffffffff163373ffffffffffffffffffffffffffffffffffffffff16145b6102fe576040517f08c379a00000000000000000000000000000000000000000000000000000000081526004016102f5906114a9565b60405180910390fd5b600360149054906101000a900460ff1661034d576040517f08c379a000000000000000000000000000000000000000000000000000000000815260040161034490611515565b60405180910390fd5b600360159054906101000a900460ff161561039d576040517f08c379a000000000000000000000000000000000000000000000000000000000815260040161039490611581565b60405180910390fd5b600360009054906101000a900473ffffffffffffffffffffffffffffffffffffffff1673ffffffffffffffffffffffffffffffffffffffff163373ffffffffffffffffffffffffffffffffffffffff161461042d576040517f08c379a0000000000000000000000000000000000000000000000000000000008152600401610424906115ed565b60405180910390fd5b828260008260ff16101580156104465750600a8260ff16105b610485576040517f08c379a000000000000000000000000000000000000000000000000000000000815260040161047c90611659565b60405180910390fd5b60008160ff161015801561049c5750600a8160ff16105b6104db576040517f08c379a00000000000000000000000000000000000000000000000000000000081526004016104d2906116c5565b60405180910390fd5b60005b600460003373ffffffffffffffffffffffffffffffffffffffff1673ffffffffffffffffffffffffffffffffffffffff16815260200190815260200160002080549050811015610671576000600460003373ffffffffffffffffffffffffffffffffffffffff1673ffffffffffffffffffffffffffffffffffffffff168152602001908152602001600020828154811061057b5761057a6116e5565b5b9060005260206000200160000160009054906101000a900460ff1690506000600460003373ffffffffffffffffffffffffffffffffffffffff1673ffffffffffffffffffffffffffffffffffffffff16815260200190815260200160002083815481106105eb576105ea6116e5565b5b9060005260206000200160000160019054906101000a900460ff1690508760ff168260ff1614801561062257508660ff168160ff16145b15610662576040517f08c379a000000000000000000000000000000000000000000000000000000000815260040161065990611786565b60405180910390fd5b505080806001019150506104de565b50600460003373ffffffffffffffffffffffffffffffffffffffff1673ffffffffffffffffffffffffffffffffffffffff16815260200190815260200160002060405180606001604052808760ff1681526020018660ff1681526020018560028111156106e1576106e06111fd565b5b8152509080600181540180825580915050600190039060005260206000200160009091909190915060008201518160000160006101000a81548160ff021916908360ff16021790555060208201518160000160016101000a81548160ff021916908360ff16021790555060408201518160000160026101000a81548160ff02191690836002811115610776576107756111fd565b5b021790555050503373ffffffffffffffffffffffffffffffffffffffff167fe747f603e7cb5da9aada1641bae96bc4e34cb86e525d6a3ed409f1c52069f4ab8686866040516107c7939291906113ef565b60405180910390a26107d7610e7e565b60008054906101000a900473ffffffffffffffffffffffffffffffffffffffff1673ffffffffffffffffffffffffffffffffffffffff16600360009054906101000a900473ffffffffffffffffffffffffffffffffffffffff1673ffffffffffffffffffffffffffffffffffffffff16146108725760008054906101000a900473ffffffffffffffffffffffffffffffffffffffff16610896565b600160009054906101000a900473ffffffffffffffffffffffffffffffffffffffff165b600360006101000a81548173ffffffffffffffffffffffffffffffffffffffff021916908373ffffffffffffffffffffffffffffffffffffffff1602179055505050505050565b600160009054906101000a900473ffffffffffffffffffffffffffffffffffffffff1681565b606060008054906101000a900473ffffffffffffffffffffffffffffffffffffffff1673ffffffffffffffffffffffffffffffffffffffff163373ffffffffffffffffffffffffffffffffffffffff1614806109ac5750600160009054906101000a900473ffffffffffffffffffffffffffffffffffffffff1673ffffffffffffffffffffffffffffffffffffffff163373ffffffffffffffffffffffffffffffffffffffff16145b6109eb576040517f08c379a00000000000000000000000000000000000000000000000000000000081526004016109e2906114a9565b60405180910390fd5b600460008373ffffffffffffffffffffffffffffffffffffffff1673ffffffffffffffffffffffffffffffffffffffff168152602001908152602001600020805480602002602001604051908101604052809291908181526020016000905b82821015610aed578382906000526020600020016040518060600160405290816000820160009054906101000a900460ff1660ff1660ff1681526020016000820160019054906101000a900460ff1660ff1660ff1681526020016000820160029054906101000a900460ff166002811115610ac857610ac76111fd565b5b6002811115610ada57610ad96111fd565b5b8152505081526020019060010190610a4a565b505050509050919050565b600360159054906101000a900460ff1681565b60046020528160005260406000208181548110610b2757600080fd5b90600052602060002001600091509150508060000160009054906101000a900460ff16908060000160019054906101000a900460ff16908060000160029054906101000a900460ff16905083565b60008054906101000a900473ffffffffffffffffffffffffffffffffffffffff1673ffffffffffffffffffffffffffffffffffffffff163373ffffffffffffffffffffffffffffffffffffffff161480610c1c5750600160009054906101000a900473ffffffffffffffffffffffffffffffffffffffff1673ffffffffffffffffffffffffffffffffffffffff163373ffffffffffffffffffffffffffffffffffffffff16145b610c5b576040517f08c379a0000000000000000000000000000000000000000000000000000000008152600401610c52906114a9565b60405180910390fd5b600360149054906101000a900460ff1615610cab576040517f08c379a0000000000000000000000000000000000000000000000000000000008152600401610ca2906117f2565b60405180910390fd5b60008054906101000a900473ffffffffffffffffffffffffffffffffffffffff1673ffffffffffffffffffffffffffffffffffffffff163373ffffffffffffffffffffffffffffffffffffffff1614610d39576040517f08c379a0000000000000000000000000000000000000000000000000000000008152600401610d309061185e565b60405180910390fd5b6001600360146101000a81548160ff021916908315150217905550600160009054906101000a900473ffffffffffffffffffffffffffffffffffffffff16600360006101000a81548173ffffffffffffffffffffffffffffffffffffffff021916908373ffffffffffffffffffffffffffffffffffffffff1602179055507f55b25d7f9b5bf8ea934ba7079455d2ba00c68ea7e66c13695275f6b75b95e5f860008054906101000a900473ffffffffffffffffffffffffffffffffffffffff16600160009054906101000a900473ffffffffffffffffffffffffffffffffffffffff16604051610e2a92919061187e565b60405180910390a1565b600260009054906101000a900473ffffffffffffffffffffffffffffffffffffffff1681565b60008054906101000a900473ffffffffffffffffffffffffffffffffffffffff1681565b6000805b600460003373ffffffffffffffffffffffffffffffffffffffff1673ffffffffffffffffffffffffffffffffffffffff16815260200190815260200160002080549050811015610f7e57600280811115610edf57610ede6111fd565b5b600460003373ffffffffffffffffffffffffffffffffffffffff1673ffffffffffffffffffffffffffffffffffffffff1681526020019081526020016000208281548110610f3057610f2f6116e5565b5b9060005260206000200160000160029054906101000a900460ff166002811115610f5d57610f5c6111fd565b5b03610f71578180610f6d906118d6565b9250505b8080600101915050610e82565b5060058160ff160361101e576001600360156101000a81548160ff02191690831515021790555033600260006101000a81548173ffffffffffffffffffffffffffffffffffffffff021916908373ffffffffffffffffffffffffffffffffffffffff1602179055507f51b77d00d3c0b7e376e9ee146711ceb2c08e58a5dbe38055a618e52109f720c1336040516110159190611062565b60405180910390a15b50565b600073ffffffffffffffffffffffffffffffffffffffff82169050919050565b600061104c82611021565b9050919050565b61105c81611041565b82525050565b60006020820190506110776000830184611053565b92915050565b60008115159050919050565b6110928161107d565b82525050565b60006020820190506110ad6000830184611089565b92915050565b600080fd5b600060ff82169050919050565b6110ce816110b8565b81146110d957600080fd5b50565b6000813590506110eb816110c5565b92915050565b600381106110fe57600080fd5b50565b600081359050611110816110f1565b92915050565b60008060006060848603121561112f5761112e6110b3565b5b600061113d868287016110dc565b935050602061114e868287016110dc565b925050604061115f86828701611101565b9150509250925092565b61117281611041565b811461117d57600080fd5b50565b60008135905061118f81611169565b92915050565b6000602082840312156111ab576111aa6110b3565b5b60006111b984828501611180565b91505092915050565b600081519050919050565b600082825260208201905092915050565b6000819050602082019050919050565b6111f7816110b8565b82525050565b7f4e487b7100000000000000000000000000000000000000000000000000000000600052602160045260246000fd5b6003811061123d5761123c6111fd565b5b50565b600081905061124e8261122c565b919050565b600061125e82611240565b9050919050565b61126e81611253565b82525050565b60608201600082015161128a60008501826111ee565b50602082015161129d60208501826111ee565b5060408201516112b06040850182611265565b50505050565b60006112c28383611274565b60608301905092915050565b6000602082019050919050565b60006112e6826111c2565b6112f081856111cd565b93506112fb836111de565b8060005b8381101561132c57815161131388826112b6565b975061131e836112ce565b9250506001810190506112ff565b5085935050505092915050565b6000602082019050818103600083015261135381846112db565b905092915050565b6000819050919050565b61136e8161135b565b811461137957600080fd5b50565b60008135905061138b81611365565b92915050565b600080604083850312156113a8576113a76110b3565b5b60006113b685828601611180565b92505060206113c78582860161137c565b9150509250929050565b6113da816110b8565b82525050565b6113e981611253565b82525050565b600060608201905061140460008301866113d1565b61141160208301856113d1565b61141e60408301846113e0565b949350505050565b600082825260208201905092915050565b7f596f7520617265206e6f74206120706c6179657220696e20746869732067616d60008201527f652e000000000000000000000000000000000000000000000000000000000000602082015250565b6000611493602283611426565b915061149e82611437565b604082019050919050565b600060208201905081810360008301526114c281611486565b9050919050565b7f5468652067616d6520686173206e6f742073746172746564207965742e000000600082015250565b60006114ff601d83611426565b915061150a826114c9565b602082019050919050565b6000602082019050818103600083015261152e816114f2565b9050919050565b7f5468652067616d65206973206f7665722e000000000000000000000000000000600082015250565b600061156b601183611426565b915061157682611535565b602082019050919050565b6000602082019050818103600083015261159a8161155e565b9050919050565b7f4e6f7420796f7572207475726e2e000000000000000000000000000000000000600082015250565b60006115d7600e83611426565b91506115e2826115a1565b602082019050919050565b60006020820190508181036000830152611606816115ca565b9050919050565b7f496e76616c6964207820636f6f7264696e6174652e0000000000000000000000600082015250565b6000611643601583611426565b915061164e8261160d565b602082019050919050565b6000602082019050818103600083015261167281611636565b9050919050565b7f496e76616c6964207920636f6f7264696e6174652e0000000000000000000000600082015250565b60006116af601583611426565b91506116ba82611679565b602082019050919050565b600060208201905081810360008301526116de816116a2565b9050919050565b7f4e487b7100000000000000000000000000000000000000000000000000000000600052603260045260246000fd5b7f596f75206861766520616c72656164792061747461636b65642074686973206360008201527f6f6f7264696e6174652e00000000000000000000000000000000000000000000602082015250565b6000611770602a83611426565b915061177b82611714565b604082019050919050565b6000602082019050818103600083015261179f81611763565b9050919050565b7f5468652067616d652068617320616c726561647920737461727465642e000000600082015250565b60006117dc601d83611426565b91506117e7826117a6565b602082019050919050565b6000602082019050818103600083015261180b816117cf565b9050919050565b7f4f6e6c7920686f73742063616e207374617274207468652067616d652e000000600082015250565b6000611848601d83611426565b915061185382611812565b602082019050919050565b600060208201905081810360008301526118778161183b565b9050919050565b60006040820190506118936000830185611053565b6118a06020830184611053565b9392505050565b7f4e487b7100000000000000000000000000000000000000000000000000000000600052601160045260246000fd5b60006118e1826110b8565b915060ff82036118f4576118f36118a7565b5b60018201905091905056fea2646970667358221220dc35fd405340fceebb33263b1d3d89028b8f9839e02ad7e0111483809615400f64736f6c63430008180033",
  "linkReferences": {},
  "deployedLinkReferences": {}
}